{
  "_format": "hh-sol-artifact-1",
  "contractName": "ViolasMProofDatas",
  "sourceName": "contracts/ViolasMProofDatas.sol",
  "abi": [
    {
      "anonymous": false,
      "inputs": [
        {
          "indexed": true,
          "internalType": "address",
          "name": "previousOwner",
          "type": "address"
        },
        {
          "indexed": true,
          "internalType": "address",
          "name": "newOwner",
          "type": "address"
        }
      ],
      "name": "OwnershipTransferred",
      "type": "event"
    },
    {
      "anonymous": false,
      "inputs": [
        {
          "indexed": true,
          "internalType": "address",
          "name": "from",
          "type": "address"
        },
        {
          "indexed": true,
          "internalType": "address",
          "name": "to",
          "type": "address"
        },
        {
          "indexed": false,
          "internalType": "string",
          "name": "datas",
          "type": "string"
        },
        {
          "indexed": false,
          "internalType": "address",
          "name": "token",
          "type": "address"
        },
        {
          "indexed": false,
          "internalType": "uint256",
          "name": "amount",
          "type": "uint256"
        },
        {
          "indexed": false,
          "internalType": "uint256",
          "name": "fee",
          "type": "uint256"
        },
        {
          "indexed": false,
          "internalType": "uint256",
          "name": "state",
          "type": "uint256"
        }
      ],
      "name": "TransferProof",
      "type": "event"
    },
    {
      "anonymous": false,
      "inputs": [
        {
          "indexed": true,
          "internalType": "address",
          "name": "manager",
          "type": "address"
        },
        {
          "indexed": false,
          "internalType": "uint256",
          "name": "version",
          "type": "uint256"
        },
        {
          "indexed": false,
          "internalType": "uint256",
          "name": "state",
          "type": "uint256"
        }
      ],
      "name": "TransferProofState",
      "type": "event"
    },
    {
      "inputs": [
        {
          "internalType": "address",
          "name": "account",
          "type": "address"
        }
      ],
      "name": "accountIsExists",
      "outputs": [
        {
          "internalType": "bool",
          "name": "",
          "type": "bool"
        }
      ],
      "stateMutability": "view",
      "type": "function"
    },
    {
      "inputs": [
        {
          "internalType": "address",
          "name": "account",
          "type": "address"
        }
      ],
      "name": "accountLatestVersion",
      "outputs": [
        {
          "internalType": "uint256",
          "name": "",
          "type": "uint256"
        }
      ],
      "stateMutability": "view",
      "type": "function"
    },
    {
      "inputs": [
        {
          "internalType": "address",
          "name": "sender",
          "type": "address"
        },
        {
          "internalType": "uint256",
          "name": "sequence",
          "type": "uint256"
        }
      ],
      "name": "accountProofInfo",
      "outputs": [
        {
          "internalType": "string",
          "name": "data",
          "type": "string"
        },
        {
          "internalType": "uint256",
          "name": "seq",
          "type": "uint256"
        },
        {
          "internalType": "uint256",
          "name": "state",
          "type": "uint256"
        },
        {
          "internalType": "address",
          "name": "token",
          "type": "address"
        },
        {
          "internalType": "uint256",
          "name": "version",
          "type": "uint256"
        },
        {
          "internalType": "uint256",
          "name": "amount",
          "type": "uint256"
        },
        {
          "internalType": "uint256",
          "name": "fee",
          "type": "uint256"
        }
      ],
      "stateMutability": "view",
      "type": "function"
    },
    {
      "inputs": [
        {
          "internalType": "address",
          "name": "account",
          "type": "address"
        }
      ],
      "name": "accountSequence",
      "outputs": [
        {
          "internalType": "uint256",
          "name": "",
          "type": "uint256"
        }
      ],
      "stateMutability": "view",
      "type": "function"
    },
    {
      "inputs": [
        {
          "internalType": "address",
          "name": "account",
          "type": "address"
        },
        {
          "internalType": "uint256",
          "name": "sequence",
          "type": "uint256"
        }
      ],
      "name": "accountVersion",
      "outputs": [
        {
          "internalType": "uint256",
          "name": "",
          "type": "uint256"
        }
      ],
      "stateMutability": "view",
      "type": "function"
    },
    {
      "inputs": [
        {
          "internalType": "uint256",
          "name": "version",
          "type": "uint256"
        }
      ],
      "name": "addressIndex",
      "outputs": [
        {
          "internalType": "uint256",
          "name": "sequence",
          "type": "uint256"
        },
        {
          "internalType": "address",
          "name": "sender",
          "type": "address"
        },
        {
          "internalType": "bool",
          "name": "create",
          "type": "bool"
        }
      ],
      "stateMutability": "view",
      "type": "function"
    },
    {
      "inputs": [
        {
          "internalType": "address",
          "name": "sender",
          "type": "address"
        }
      ],
      "name": "addressProof",
      "outputs": [
        {
          "internalType": "uint256",
          "name": "maxSequence",
          "type": "uint256"
        },
        {
          "internalType": "uint256",
          "name": "minVersion",
          "type": "uint256"
        },
        {
          "internalType": "uint256",
          "name": "maxVersion",
          "type": "uint256"
        },
        {
          "internalType": "bool",
          "name": "inited",
          "type": "bool"
        }
      ],
      "stateMutability": "view",
      "type": "function"
    },
    {
      "inputs": [
        {
          "internalType": "address",
          "name": "newManager",
          "type": "address"
        }
      ],
      "name": "grantedMngPermission",
      "outputs": [],
      "stateMutability": "nonpayable",
      "type": "function"
    },
    {
      "inputs": [],
      "name": "initialize",
      "outputs": [],
      "stateMutability": "nonpayable",
      "type": "function"
    },
    {
      "inputs": [],
      "name": "mainAddress",
      "outputs": [
        {
          "internalType": "address",
          "name": "",
          "type": "address"
        }
      ],
      "stateMutability": "view",
      "type": "function"
    },
    {
      "inputs": [
        {
          "internalType": "address",
          "name": "managerAddr",
          "type": "address"
        }
      ],
      "name": "manageRoleState",
      "outputs": [
        {
          "internalType": "bool",
          "name": "",
          "type": "bool"
        }
      ],
      "stateMutability": "view",
      "type": "function"
    },
    {
      "inputs": [
        {
          "internalType": "uint256",
          "name": "",
          "type": "uint256"
        }
      ],
      "name": "manager",
      "outputs": [
        {
          "internalType": "address",
          "name": "",
          "type": "address"
        }
      ],
      "stateMutability": "view",
      "type": "function"
    },
    {
      "inputs": [],
      "name": "managerMaxCount",
      "outputs": [
        {
          "internalType": "uint256",
          "name": "",
          "type": "uint256"
        }
      ],
      "stateMutability": "view",
      "type": "function"
    },
    {
      "inputs": [],
      "name": "name",
      "outputs": [
        {
          "internalType": "string",
          "name": "",
          "type": "string"
        }
      ],
      "stateMutability": "view",
      "type": "function"
    },
    {
      "inputs": [],
      "name": "nextVersion",
      "outputs": [
        {
          "internalType": "uint256",
          "name": "",
          "type": "uint256"
        }
      ],
      "stateMutability": "view",
      "type": "function"
    },
    {
      "inputs": [],
      "name": "owner",
      "outputs": [
        {
          "internalType": "address",
          "name": "",
          "type": "address"
        }
      ],
      "stateMutability": "view",
      "type": "function"
    },
    {
      "inputs": [
        {
          "internalType": "uint256",
          "name": "version",
          "type": "uint256"
        }
      ],
      "name": "proofInfo",
      "outputs": [
        {
          "internalType": "string",
          "name": "data",
          "type": "string"
        },
        {
          "internalType": "uint256",
          "name": "seq",
          "type": "uint256"
        },
        {
          "internalType": "uint256",
          "name": "state",
          "type": "uint256"
        },
        {
          "internalType": "address",
          "name": "token",
          "type": "address"
        },
        {
          "internalType": "address",
          "name": "sender",
          "type": "address"
        },
        {
          "internalType": "uint256",
          "name": "amount",
          "type": "uint256"
        },
        {
          "internalType": "bool",
          "name": "create",
          "type": "bool"
        },
        {
          "internalType": "uint256",
          "name": "fee",
          "type": "uint256"
        }
      ],
      "stateMutability": "view",
      "type": "function"
    },
    {
      "inputs": [],
      "name": "renounceOwnership",
      "outputs": [],
      "stateMutability": "nonpayable",
      "type": "function"
    },
    {
      "inputs": [
        {
          "internalType": "address",
          "name": "managerAddr",
          "type": "address"
        }
      ],
      "name": "revokeMngPermission",
      "outputs": [],
      "stateMutability": "nonpayable",
      "type": "function"
    },
    {
      "inputs": [],
      "name": "stateAddress",
      "outputs": [
        {
          "internalType": "address",
          "name": "",
          "type": "address"
        }
      ],
      "stateMutability": "view",
      "type": "function"
    },
    {
      "inputs": [],
      "name": "symbol",
      "outputs": [
        {
          "internalType": "string",
          "name": "",
          "type": "string"
        }
      ],
      "stateMutability": "view",
      "type": "function"
    },
    {
      "inputs": [
        {
          "internalType": "address",
          "name": "newOwner",
          "type": "address"
        }
      ],
      "name": "transferOwnership",
      "outputs": [],
      "stateMutability": "nonpayable",
      "type": "function"
    },
    {
      "inputs": [
        {
          "internalType": "address",
          "name": "fromAddr",
          "type": "address"
        },
        {
          "internalType": "address",
          "name": "toAddr",
          "type": "address"
        },
        {
          "internalType": "address",
          "name": "token",
          "type": "address"
        },
        {
          "internalType": "uint256",
          "name": "amount",
          "type": "uint256"
        },
        {
          "internalType": "uint256",
          "name": "fee",
          "type": "uint256"
        },
        {
          "internalType": "string",
          "name": "datas",
          "type": "string"
        }
      ],
      "name": "transferProof",
      "outputs": [
        {
          "internalType": "bool",
          "name": "",
          "type": "bool"
        }
      ],
      "stateMutability": "payable",
      "type": "function"
    },
    {
      "inputs": [
        {
          "internalType": "address",
          "name": "sender",
          "type": "address"
        },
        {
          "internalType": "uint256",
          "name": "sequence",
          "type": "uint256"
        },
        {
          "internalType": "string",
          "name": "state",
          "type": "string"
        }
      ],
      "name": "upAUSState",
      "outputs": [
        {
          "internalType": "bool",
          "name": "",
          "type": "bool"
        }
      ],
      "stateMutability": "nonpayable",
      "type": "function"
    },
    {
      "inputs": [
        {
          "internalType": "address",
          "name": "sender",
          "type": "address"
        },
        {
          "internalType": "uint256",
          "name": "sequence",
          "type": "uint256"
        },
        {
          "internalType": "uint256",
          "name": "state",
          "type": "uint256"
        }
      ],
      "name": "upAUUState",
      "outputs": [
        {
          "internalType": "bool",
          "name": "",
          "type": "bool"
        }
      ],
      "stateMutability": "nonpayable",
      "type": "function"
    },
    {
      "inputs": [
        {
          "internalType": "uint256",
          "name": "version",
          "type": "uint256"
        },
        {
          "internalType": "string",
          "name": "state",
          "type": "string"
        }
      ],
      "name": "upUSState",
      "outputs": [
        {
          "internalType": "bool",
          "name": "",
          "type": "bool"
        }
      ],
      "stateMutability": "nonpayable",
      "type": "function"
    },
    {
      "inputs": [
        {
          "internalType": "uint256",
          "name": "version",
          "type": "uint256"
        },
        {
          "internalType": "uint256",
          "name": "state",
          "type": "uint256"
        }
      ],
      "name": "upUUState",
      "outputs": [
        {
          "internalType": "bool",
          "name": "",
          "type": "bool"
        }
      ],
      "stateMutability": "nonpayable",
      "type": "function"
    },
    {
      "inputs": [
        {
          "internalType": "address",
          "name": "mainAddr",
          "type": "address"
        }
      ],
      "name": "upgradMainAddress",
      "outputs": [
        {
          "internalType": "bool",
          "name": "",
          "type": "bool"
        }
      ],
      "stateMutability": "nonpayable",
      "type": "function"
    },
    {
      "inputs": [
        {
          "internalType": "address",
          "name": "stateAddr",
          "type": "address"
        }
      ],
      "name": "upgradStateAddress",
      "outputs": [
        {
          "internalType": "bool",
          "name": "",
          "type": "bool"
        }
      ],
      "stateMutability": "nonpayable",
      "type": "function"
    },
    {
      "stateMutability": "payable",
      "type": "receive"
    }
  ],
  "bytecode": "0x608060405234801561001057600080fd5b506127ad806100206000396000f3fe6080604052600436106101c55760003560e01c806376480f0a116100f7578063a54e109711610095578063d9d77c3911610064578063d9d77c39146104f3578063ef555e2614610526578063f2fde38b14610546578063f51a83f614610566576101cc565b8063a54e109714610464578063cc1a286514610484578063d1a34ed6146104b3578063d9239724146104d3576101cc565b806383c3275c116100d157806383c3275c146103fa5780638da5cb5b1461041a57806395d89b411461042f578063a5337eb114610444576101cc565b806376480f0a146103b25780638129fc1c146103d257806381b2654a146103e7576101cc565b80633344ff68116101645780634bbf81771161013e5780634bbf81771461033b578063529814571461035d578063715018a61461037d578063733cd9c114610392576101cc565b80633344ff68146102d25780633cc5bdd9146102f2578063437b247314610326576101cc565b80630bafd60e116101a05780630bafd60e1461024e5780630bff0053146102635780630cdd42341461029057806318c0a626146102b2576101cc565b80621b3127146101d157806306fdde03146101fc57806309e28f4d1461021e576101cc565b366101cc57005b600080fd5b3480156101dd57600080fd5b506101e6610586565b6040516101f39190612663565b60405180910390f35b34801561020857600080fd5b5061021161058c565b6040516101f391906121a0565b34801561022a57600080fd5b5061023e610239366004611e9f565b61061a565b6040516101f3949392919061269b565b34801561025a57600080fd5b506101e6610655565b34801561026f57600080fd5b5061028361027e366004611f69565b61065b565b6040516101f39190612137565b34801561029c57600080fd5b506102a5610762565b6040516101f39190612123565b3480156102be57600080fd5b506101e66102cd366004611e9f565b610771565b3480156102de57600080fd5b506102836102ed366004612043565b6107e0565b3480156102fe57600080fd5b5061031261030d366004612013565b6108e9565b6040516101f39897969594939291906121b3565b34801561033257600080fd5b506102a56109e2565b34801561034757600080fd5b5061035b610356366004611e9f565b6109f1565b005b34801561036957600080fd5b506102a5610378366004612013565b610a86565b34801561038957600080fd5b5061035b610aa1565b34801561039e57600080fd5b506102836103ad366004611e9f565b610b2a565b3480156103be57600080fd5b5061035b6103cd366004611e9f565b610bf2565b3480156103de57600080fd5b5061035b610cb9565b6102836103f5366004611eb9565b610d9b565b34801561040657600080fd5b50610283610415366004611e9f565b610f38565b34801561042657600080fd5b506102a5610f56565b34801561043b57600080fd5b50610211610f65565b34801561045057600080fd5b5061028361045f36600461208d565b610f72565b34801561047057600080fd5b5061028361047f366004611e9f565b610ff1565b34801561049057600080fd5b506104a461049f366004612013565b611019565b6040516101f39392919061266c565b3480156104bf57600080fd5b506101e66104ce366004611e9f565b611072565b3480156104df57600080fd5b506101e66104ee366004611f40565b6110d3565b3480156104ff57600080fd5b5061051361050e366004611f40565b61117c565b6040516101f3979695949392919061220a565b34801561053257600080fd5b50610283610541366004611e9f565b61126e565b34801561055257600080fd5b5061035b610561366004611e9f565b611328565b34801561057257600080fd5b50610283610581366004611fc1565b6113e9565b60675481565b60688054610599906126e7565b80601f01602080910402602001604051908101604052809291908181526020018280546105c5906126e7565b80156106125780601f106105e757610100808354040283529160200191610612565b820191906000526020600020905b8154815290600101906020018083116105f557829003601f168201915b505050505081565b6001600160a01b03166000908152606b602052604090208054600182015460028301546003909301549193909291600160a01b900460ff1690565b606a5481565b3360009081526065602052604081205460ff1680610691575061067c610f56565b6001600160a01b0316336001600160a01b0316145b6106b65760405162461bcd60e51b81526004016106ad90612257565b60405180910390fd5b60006106c2868661145d565b606e54604051633ee78a7160e01b81529192506000916001600160a01b0390911690633ee78a71906106fa9088908890600401612142565b60206040518083038186803b15801561071257600080fd5b505afa158015610726573d6000803e3d6000fd5b505050506040513d601f19601f8201168201806040525081019061074a919061202b565b90506107578288836114df565b979650505050505050565b606f546001600160a01b031681565b6001600160a01b0381166000908152606b6020526040812060030154600160a01b900460ff166107b35760405162461bcd60e51b81526004016106ad906124d7565b6001600160a01b0382166000908152606b60205260409020546107d8906001906126d0565b90505b919050565b3360009081526065602052604081205460ff16806108165750610801610f56565b6001600160a01b0316336001600160a01b0316145b6108325760405162461bcd60e51b81526004016106ad90612257565b6000806000610840876115d8565b50606e54604051633ee78a7160e01b8152929550909350600192506000916001600160a01b0390911690633ee78a7190610880908a908a90600401612142565b60206040518083038186803b15801561089857600080fd5b505afa1580156108ac573d6000803e3d6000fd5b505050506040513d601f19601f820116820180604052508101906108d0919061202b565b90506108dd8484836114df565b98975050505050505050565b60606000806000806000806000806000806109038c6115d8565b925092509250826006018054610918906126e7565b80601f0160208091040260200160405190810160405280929190818152602001828054610944906126e7565b80156109915780601f1061096657610100808354040283529160200191610991565b820191906000526020600020905b81548152906001019060200180831161097457829003601f168201915b50505050509a5082600301549950826004015498508260050160009054906101000a90046001600160a01b031697508260000154955082600101549350819650809450505050919395975091939597565b606d546001600160a01b031681565b6109f961160c565b6001600160a01b0316610a0a610f56565b6001600160a01b031614610a305760405162461bcd60e51b81526004016106ad906124a2565b6001600160a01b038116610a565760405162461bcd60e51b81526004016106ad906123d2565b6001600160a01b0381166000908152606560205260409020805460ff19166001179055610a8281611610565b5050565b6066602052600090815260409020546001600160a01b031681565b610aa961160c565b6001600160a01b0316610aba610f56565b6001600160a01b031614610ae05760405162461bcd60e51b81526004016106ad906124a2565b6033546040516000916001600160a01b0316907f8be0079c531659141344cd1fd0a4f28419497f9722a3daafe3b4186f6b6457e0908390a3603380546001600160a01b0319169055565b6000610b3461160c565b6001600160a01b0316610b45610f56565b6001600160a01b031614610b6b5760405162461bcd60e51b81526004016106ad906124a2565b6001600160a01b038216610b915760405162461bcd60e51b81526004016106ad90612337565b606d546001600160a01b0383811691161415610bbf5760405162461bcd60e51b81526004016106ad9061260e565b50606d80546001600160a01b03199081166001600160a01b039384161791829055606e8054929093169116179055600190565b610bfa61160c565b6001600160a01b0316610c0b610f56565b6001600160a01b031614610c315760405162461bcd60e51b81526004016106ad906124a2565b6001600160a01b038116610c575760405162461bcd60e51b81526004016106ad906123d2565b610c5f610f56565b6001600160a01b0316816001600160a01b03161415610c905760405162461bcd60e51b81526004016106ad90612502565b6001600160a01b0381166000908152606560205260409020805460ff19169055610a82816116ea565b600054610100900460ff1680610cd2575060005460ff16155b610cee5760405162461bcd60e51b81526004016106ad90612409565b600054610100900460ff16158015610d19576000805460ff1961ff0019909116610100171660011790555b610d21611760565b6040805180820190915260128082527156696f6c61732050726f6f6620446174617360701b6020909201918252610d5a91606891611da8565b506040805180820190915260038082526215941160ea1b6020909201918252610d8591606991611da8565b508015610d98576000805461ff00191690555b50565b606f546000906001600160a01b0316331480610dcf5750610dba610f56565b6001600160a01b0316336001600160a01b0316145b610deb5760405162461bcd60e51b81526004016106ad90612539565b606e54604051633ee78a7160e01b81526000916001600160a01b031690633ee78a7190610e1a90600401612457565b60206040518083038186803b158015610e3257600080fd5b505afa158015610e46573d6000803e3d6000fd5b505050506040513d601f19601f82011682018060405250810190610e6a919061202b565b90506000610eb48a8987878080601f0160208091040260200160405190810160405280939291908181526020018383808284376000920191909152508892508d91508c90506117e4565b905080610ed35760405162461bcd60e51b81526004016106ad9061236e565b886001600160a01b03168a6001600160a01b03167fe723cfcfef12a939c1b2d3242706536dc47ef7048333c24e4d6db9126735e44187878c8c8c89604051610f209695949392919061215e565b60405180910390a35060019998505050505050505050565b6001600160a01b031660009081526065602052604090205460ff1690565b6033546001600160a01b031690565b60698054610599906126e7565b3360009081526065602052604081205460ff1680610fa85750610f93610f56565b6001600160a01b0316336001600160a01b0316145b610fc45760405162461bcd60e51b81526004016106ad90612257565b6000806000610fd2866115d8565b92509250925060019050610fe78383876114df565b9695505050505050565b6001600160a01b03166000908152606b6020526040902060030154600160a01b900460ff1690565b6000806000606a54841061103f5760405162461bcd60e51b81526004016106ad906125e0565b5050506000908152606c60205260409020805460019091015490916001600160a01b03821691600160a01b900460ff1690565b6001600160a01b0381166000908152606b6020526040812060030154600160a01b900460ff166110b45760405162461bcd60e51b81526004016106ad906124d7565b506001600160a01b03166000908152606b602052604090206002015490565b6001600160a01b0382166000908152606b6020526040812060030154600160a01b900460ff166111155760405162461bcd60e51b81526004016106ad906124d7565b6001600160a01b0383166000908152606b6020526040902054821061114c5760405162461bcd60e51b81526004016106ad906123a5565b506001600160a01b03919091166000908152606b6020908152604080832093835260049093019052206002015490565b606060008060008060008060006111938a8a61145d565b90508060060180546111a4906126e7565b80601f01602080910402602001604051908101604052809291908181526020018280546111d0906126e7565b801561121d5780601f106111f25761010080835404028352916020019161121d565b820191906000526020600020905b81548152906001019060200180831161120057829003601f168201915b5050505050975080600301549650806004015495508060050160009054906101000a90046001600160a01b031694508060020154935080600001549250806001015491505092959891949750929550565b600061127861160c565b6001600160a01b0316611289610f56565b6001600160a01b0316146112af5760405162461bcd60e51b81526004016106ad906124a2565b6001600160a01b0382166112d55760405162461bcd60e51b81526004016106ad9061257b565b606f546001600160a01b03838116911614156113035760405162461bcd60e51b81526004016106ad9061260e565b50606f80546001600160a01b0383166001600160a01b03199091161790556001919050565b61133061160c565b6001600160a01b0316611341610f56565b6001600160a01b0316146113675760405162461bcd60e51b81526004016106ad906124a2565b6001600160a01b03811661138d5760405162461bcd60e51b81526004016106ad9061229a565b6033546040516001600160a01b038084169216907f8be0079c531659141344cd1fd0a4f28419497f9722a3daafe3b4186f6b6457e090600090a3603380546001600160a01b0319166001600160a01b0392909216919091179055565b3360009081526065602052604081205460ff168061141f575061140a610f56565b6001600160a01b0316336001600160a01b0316145b61143b5760405162461bcd60e51b81526004016106ad90612257565b6000611447858561145d565b90506114548186856114df565b95945050505050565b6001600160a01b0382166000908152606b6020908152604080832084845260048101909252909120815490919083118015906114a457506003810154600160a01b900460ff165b80156114bc575060058201546001600160a01b031615155b6114d85760405162461bcd60e51b81526004016106ad9061230a565b5092915050565b60006001600160a01b0383166114f457600080fd5b60408051606081018252600386015481526001600160a01b0380861660208084019182526000848601818152606a548252606c909252949094209251835551600192909201805493511515600160a01b0260ff60a01b19939092166001600160a01b03199094169390931791909116179055600484015461157590836119d9565b5060048401829055606a5461158b906001611a89565b606a55600284015460405133917f9981f630c5e7682c2bdaed1476f485b7f25eb219f5b75786513908fbbe3c6c84916115c69190869061268d565b60405180910390a25060019392505050565b6000806000806000806115ea87611a9c565b925092509250829450809350611600858361145d565b95505050509193909250565b3390565b606754600090815b6067548163ffffffff1610156116995763ffffffff81166000908152606660205260409020546001600160a01b0390811690851681141561165f57600193505050506107db565b6001600160a01b038116158015611677575060675483145b15611686578163ffffffff1692505b50806116918161273d565b915050611618565b50600081815260666020526040902080546001600160a01b0319166001600160a01b0385161790556067548114156116e157606780549060006116db83612722565b91905055505b50600192915050565b6000805b6067548163ffffffff1610156116e15763ffffffff81166000908152606660205260409020546001600160a01b0390811690841681141561174d5763ffffffff8216600090815260666020526040902080546001600160a01b03191690555b50806117588161273d565b9150506116ee565b600054610100900460ff1680611779575060005460ff16155b6117955760405162461bcd60e51b81526004016106ad90612409565b600054610100900460ff161580156117c0576000805460ff1961ff0019909116610100171660011790555b6117c8611b30565b6117d0611ba0565b8015610d98576000805461ff001916905550565b6001600160a01b0386166000908152606b602052604081206003810154600160a01b900460ff161561181d57606a546002820155611860565b6003810180546001600160a01b038a166001600160a01b03199091161780825560008355606a5460018401819055600284015560ff60a01b1916600160a01b1790555b6040518060e00160405280858152602001848152602001606a54815260200182600001548152602001868152602001886001600160a01b031681526020018781525081600401600083600001548152602001908152602001600020600082015181600001556020820151816001015560408201518160020155606082015181600301556080820151816004015560a08201518160050160006101000a8154816001600160a01b0302191690836001600160a01b0316021790555060c0820151816006019080519060200190611936929190611da8565b505060408051606081018252835481526001600160a01b03808c1660208084019182526001848601818152606a80546000908152606c90945296909220945185559151938201805491511515600160a01b0260ff60a01b19959094166001600160a01b031990921691909117939093169190911790915590546119ba925090611a89565b606a5580546119ca906001611a89565b90555060019695505050505050565b606e5460405163c314c31760e01b815260009182916001600160a01b039091169063c314c31790611a10908790879060040161268d565b60206040518083038186803b158015611a2857600080fd5b505afa158015611a3c573d6000803e3d6000fd5b505050506040513d601f19601f82011682018060405250810190611a609190611ff3565b905080611a7f5760405162461bcd60e51b81526004016106ad906125a9565b5060019392505050565b6000611a9582846126b8565b9392505050565b6000806000606a548410611ac25760405162461bcd60e51b81526004016106ad90612476565b5050506000818152606c6020908152604080832080546001909101546001600160a01b038116808652606b909452919093206003015491929160ff600160a01b9283900481169290910416611b295760405162461bcd60e51b81526004016106ad906122e0565b9193909250565b600054610100900460ff1680611b49575060005460ff16155b611b655760405162461bcd60e51b81526004016106ad90612409565b600054610100900460ff16158015611b90576000805460ff1961ff0019909116610100171660011790555b611b98611c69565b6117d0611cdc565b600054610100900460ff1680611bb9575060005460ff16155b611bd55760405162461bcd60e51b81526004016106ad90612409565b600054610100900460ff16158015611c00576000805460ff1961ff0019909116610100171660011790555b3360008181526065602090815260408220805460ff19166001179055908052606690527f6f48904484b35701cf1f41ad9068b394adf7e2f8a59d2309a04d10a155eaa72b80546001600160a01b03191690911790558015610d98576000805461ff001916905550565b600054610100900460ff1680611c82575060005460ff16155b611c9e5760405162461bcd60e51b81526004016106ad90612409565b600054610100900460ff161580156117d0576000805460ff1961ff0019909116610100171660011790558015610d98576000805461ff001916905550565b600054610100900460ff1680611cf5575060005460ff16155b611d115760405162461bcd60e51b81526004016106ad90612409565b600054610100900460ff16158015611d3c576000805460ff1961ff0019909116610100171660011790555b6000611d4661160c565b603380546001600160a01b0319166001600160a01b038316908117909155604051919250906000907f8be0079c531659141344cd1fd0a4f28419497f9722a3daafe3b4186f6b6457e0908290a3508015610d98576000805461ff001916905550565b828054611db4906126e7565b90600052602060002090601f016020900481019282611dd65760008555611e1c565b82601f10611def57805160ff1916838001178555611e1c565b82800160010185558215611e1c579182015b82811115611e1c578251825591602001919060010190611e01565b50611e28929150611e2c565b5090565b5b80821115611e285760008155600101611e2d565b80356001600160a01b03811681146107db57600080fd5b60008083601f840112611e69578182fd5b50813567ffffffffffffffff811115611e80578182fd5b602083019150836020828501011115611e9857600080fd5b9250929050565b600060208284031215611eb0578081fd5b611a9582611e41565b600080600080600080600060c0888a031215611ed3578283fd5b611edc88611e41565b9650611eea60208901611e41565b9550611ef860408901611e41565b9450606088013593506080880135925060a088013567ffffffffffffffff811115611f21578283fd5b611f2d8a828b01611e58565b989b979a50959850939692959293505050565b60008060408385031215611f52578182fd5b611f5b83611e41565b946020939093013593505050565b60008060008060608587031215611f7e578384fd5b611f8785611e41565b935060208501359250604085013567ffffffffffffffff811115611fa9578283fd5b611fb587828801611e58565b95989497509550505050565b600080600060608486031215611fd5578283fd5b611fde84611e41565b95602085013595506040909401359392505050565b600060208284031215612004578081fd5b81518015158114611a95578182fd5b600060208284031215612024578081fd5b5035919050565b60006020828403121561203c578081fd5b5051919050565b600080600060408486031215612057578283fd5b83359250602084013567ffffffffffffffff811115612074578283fd5b61208086828701611e58565b9497909650939450505050565b6000806040838503121561209f578182fd5b50508035926020909101359150565b60008284528282602086013780602084860101526020601f19601f85011685010190509392505050565b60008151808452815b818110156120fd576020818501810151868301820152016120e1565b8181111561210e5782602083870101525b50601f01601f19169290920160200192915050565b6001600160a01b0391909116815260200190565b901515815260200190565b6000602082526121566020830184866120ae565b949350505050565b600060a0825261217260a08301888a6120ae565b6001600160a01b03969096166020830152506040810193909352606083019190915260809091015292915050565b600060208252611a9560208301846120d8565b60006101008083526121c78184018c6120d8565b602084019a909a52505060408101969096526001600160a01b03948516606087015292909316608085015260a084015290151560c083015260e090910152919050565b600060e0825261221d60e083018a6120d8565b60208301989098525060408101959095526001600160a01b03939093166060850152608084019190915260a083015260c090910152919050565b60208082526023908201527f6f6e6c79206d616e61676572206f72206f776e657220726f6c652072657175696040820152621c995960ea1b606082015260800190565b60208082526026908201527f4f776e61626c653a206e6577206f776e657220697320746865207a65726f206160408201526564647265737360d01b606082015260800190565b60208082526010908201526f1c1c9bdbd9881a5cc81a5b9d985b1a5960821b604082015260600190565b6020808252601390820152721cd95c5d595b98d9481a5cc81a5b9d985b1a59606a1b604082015260600190565b6020808252601d908201527f54686520696e707574206164647265737320697320696e76616c69642e000000604082015260600190565b60208082526017908201527f736176652070726f6f662064617461206661696c65642e000000000000000000604082015260600190565b60208082526013908201527273657175656e636520697320746f6f2062696760681b604082015260600190565b60208082526017908201527f61646472657373283078302920697320696e76616c6964000000000000000000604082015260600190565b6020808252602e908201527f496e697469616c697a61626c653a20636f6e747261637420697320616c72656160408201526d191e481a5b9a5d1a585b1a5e995960921b606082015260800190565b6020808252600590820152641cdd185c9d60da1b604082015260600190565b6020808252601290820152711d995c9cda5bdb881a5cc81a5b9d985b1a5960721b604082015260600190565b6020808252818101527f4f776e61626c653a2063616c6c6572206973206e6f7420746865206f776e6572604082015260600190565b6020808252601190820152701858d8dbdd5b9d081b9bdd08199bdd5b99607a1b604082015260600190565b6020808252601e908201527f63616e206e6f74207265766f6b652073656c66207065726d697373696f6e0000604082015260600190565b60208082526022908201527f6f6e6c79206d61696e6572206f72206f776e657220726f6c6520726571756972604082015261195960f21b606082015260800190565b60208082526014908201527336b0b4b720b232391034b99034b73b30b634b21760611b604082015260600190565b6020808252601c908201527f7374617465206368616e6765207061746820697320696e76616c696400000000604082015260600190565b602080825260149082015273185c99dd5b595b9d1cc81a5cc81a5b9d985b1a5960621b604082015260600190565b60208082526035908201527f54686520696e7075742061646472657373206973207468652073616d65206173604082015274103a34329031bab93932b73a1030b2323932b9b99760591b606082015260800190565b90815260200190565b9283526001600160a01b039190911660208301521515604082015260600190565b918252602082015260400190565b938452602084019290925260408301521515606082015260800190565b600082198211156126cb576126cb612761565b500190565b6000828210156126e2576126e2612761565b500390565b6002810460018216806126fb57607f821691505b6020821081141561271c57634e487b7160e01b600052602260045260246000fd5b50919050565b600060001982141561273657612736612761565b5060010190565b600063ffffffff8083168181141561275757612757612761565b6001019392505050565b634e487b7160e01b600052601160045260246000fdfea26469706673582212202e695b47abcd4116b48334d80cc228645a308be674b0eccc74df85e4bdddc20c64736f6c63430008000033",
  "linkReferences": {},
  "deployedLinkReferences": {}
}