{
  "_format": "hh-sol-artifact-1",
  "contractName": "ViolasMProofMain",
  "sourceName": "contracts/ViolasMProofMain.sol",
  "abi": [
    {
      "anonymous": false,
      "inputs": [
        {
          "indexed": true,
          "internalType": "address",
          "name": "previousOwner",
          "type": "address"
        },
        {
          "indexed": true,
          "internalType": "address",
          "name": "newOwner",
          "type": "address"
        }
      ],
      "name": "OwnershipTransferred",
      "type": "event"
    },
    {
      "anonymous": false,
      "inputs": [
        {
          "indexed": false,
          "internalType": "address",
          "name": "account",
          "type": "address"
        }
      ],
      "name": "Paused",
      "type": "event"
    },
    {
      "anonymous": false,
      "inputs": [
        {
          "indexed": true,
          "internalType": "address",
          "name": "from",
          "type": "address"
        },
        {
          "indexed": true,
          "internalType": "address",
          "name": "to",
          "type": "address"
        },
        {
          "indexed": false,
          "internalType": "address",
          "name": "token",
          "type": "address"
        },
        {
          "indexed": false,
          "internalType": "uint256",
          "name": "amount",
          "type": "uint256"
        },
        {
          "indexed": false,
          "internalType": "uint256",
          "name": "fee",
          "type": "uint256"
        }
      ],
      "name": "TransferProof",
      "type": "event"
    },
    {
      "anonymous": false,
      "inputs": [
        {
          "indexed": false,
          "internalType": "address",
          "name": "account",
          "type": "address"
        }
      ],
      "name": "Unpaused",
      "type": "event"
    },
    {
      "inputs": [],
      "name": "contractVersion",
      "outputs": [
        {
          "internalType": "uint256",
          "name": "",
          "type": "uint256"
        }
      ],
      "stateMutability": "view",
      "type": "function"
    },
    {
      "inputs": [],
      "name": "deprecated",
      "outputs": [
        {
          "internalType": "bool",
          "name": "",
          "type": "bool"
        }
      ],
      "stateMutability": "view",
      "type": "function"
    },
    {
      "inputs": [],
      "name": "initialize",
      "outputs": [],
      "stateMutability": "nonpayable",
      "type": "function"
    },
    {
      "inputs": [],
      "name": "name",
      "outputs": [
        {
          "internalType": "string",
          "name": "",
          "type": "string"
        }
      ],
      "stateMutability": "view",
      "type": "function"
    },
    {
      "inputs": [],
      "name": "owner",
      "outputs": [
        {
          "internalType": "address",
          "name": "",
          "type": "address"
        }
      ],
      "stateMutability": "view",
      "type": "function"
    },
    {
      "inputs": [],
      "name": "paused",
      "outputs": [
        {
          "internalType": "bool",
          "name": "",
          "type": "bool"
        }
      ],
      "stateMutability": "view",
      "type": "function"
    },
    {
      "inputs": [],
      "name": "payee",
      "outputs": [
        {
          "internalType": "address",
          "name": "",
          "type": "address"
        }
      ],
      "stateMutability": "view",
      "type": "function"
    },
    {
      "inputs": [],
      "name": "proofAddress",
      "outputs": [
        {
          "internalType": "address",
          "name": "",
          "type": "address"
        }
      ],
      "stateMutability": "view",
      "type": "function"
    },
    {
      "inputs": [
        {
          "internalType": "address",
          "name": "token",
          "type": "address"
        }
      ],
      "name": "removeTokenWithAddress",
      "outputs": [
        {
          "internalType": "bool",
          "name": "",
          "type": "bool"
        }
      ],
      "stateMutability": "payable",
      "type": "function"
    },
    {
      "inputs": [
        {
          "internalType": "string",
          "name": "name",
          "type": "string"
        }
      ],
      "name": "removeTokenWithName",
      "outputs": [
        {
          "internalType": "bool",
          "name": "",
          "type": "bool"
        }
      ],
      "stateMutability": "payable",
      "type": "function"
    },
    {
      "inputs": [],
      "name": "renounceOwnership",
      "outputs": [],
      "stateMutability": "nonpayable",
      "type": "function"
    },
    {
      "inputs": [],
      "name": "symbol",
      "outputs": [
        {
          "internalType": "string",
          "name": "",
          "type": "string"
        }
      ],
      "stateMutability": "view",
      "type": "function"
    },
    {
      "inputs": [
        {
          "internalType": "string",
          "name": "name",
          "type": "string"
        }
      ],
      "name": "tokenAddress",
      "outputs": [
        {
          "internalType": "address",
          "name": "tokenAddrr",
          "type": "address"
        }
      ],
      "stateMutability": "view",
      "type": "function"
    },
    {
      "inputs": [
        {
          "internalType": "address",
          "name": "token",
          "type": "address"
        }
      ],
      "name": "tokenMaxAmount",
      "outputs": [
        {
          "internalType": "uint256",
          "name": "",
          "type": "uint256"
        }
      ],
      "stateMutability": "view",
      "type": "function"
    },
    {
      "inputs": [],
      "name": "tokenMaxCount",
      "outputs": [
        {
          "internalType": "uint256",
          "name": "",
          "type": "uint256"
        }
      ],
      "stateMutability": "view",
      "type": "function"
    },
    {
      "inputs": [
        {
          "internalType": "address",
          "name": "token",
          "type": "address"
        }
      ],
      "name": "tokenMinAmount",
      "outputs": [
        {
          "internalType": "uint256",
          "name": "",
          "type": "uint256"
        }
      ],
      "stateMutability": "view",
      "type": "function"
    },
    {
      "inputs": [
        {
          "internalType": "address",
          "name": "tokenAddr",
          "type": "address"
        }
      ],
      "name": "tokenName",
      "outputs": [
        {
          "internalType": "string",
          "name": "name",
          "type": "string"
        }
      ],
      "stateMutability": "view",
      "type": "function"
    },
    {
      "inputs": [
        {
          "internalType": "address",
          "name": "tokenAddrr",
          "type": "address"
        },
        {
          "internalType": "address",
          "name": "recipient",
          "type": "address"
        },
        {
          "internalType": "uint256",
          "name": "amount",
          "type": "uint256"
        }
      ],
      "name": "transfer",
      "outputs": [
        {
          "internalType": "bool",
          "name": "",
          "type": "bool"
        }
      ],
      "stateMutability": "payable",
      "type": "function"
    },
    {
      "inputs": [
        {
          "internalType": "address",
          "name": "newOwner",
          "type": "address"
        }
      ],
      "name": "transferOwnership",
      "outputs": [],
      "stateMutability": "nonpayable",
      "type": "function"
    },
    {
      "inputs": [
        {
          "internalType": "address",
          "name": "newPayee",
          "type": "address"
        }
      ],
      "name": "transferPayeeship",
      "outputs": [
        {
          "internalType": "address",
          "name": "",
          "type": "address"
        }
      ],
      "stateMutability": "nonpayable",
      "type": "function"
    },
    {
      "inputs": [
        {
          "internalType": "address",
          "name": "tokenAddr",
          "type": "address"
        },
        {
          "internalType": "string",
          "name": "datas",
          "type": "string"
        }
      ],
      "name": "transferProof",
      "outputs": [
        {
          "internalType": "bool",
          "name": "",
          "type": "bool"
        }
      ],
      "stateMutability": "payable",
      "type": "function"
    },
    {
      "inputs": [
        {
          "internalType": "string",
          "name": "name",
          "type": "string"
        },
        {
          "internalType": "address",
          "name": "tokenAddr",
          "type": "address"
        }
      ],
      "name": "updateToken",
      "outputs": [
        {
          "internalType": "bool",
          "name": "",
          "type": "bool"
        }
      ],
      "stateMutability": "payable",
      "type": "function"
    },
    {
      "inputs": [
        {
          "internalType": "address",
          "name": "token",
          "type": "address"
        },
        {
          "internalType": "uint256",
          "name": "amount",
          "type": "uint256"
        }
      ],
      "name": "updateTokenMaxAmount",
      "outputs": [
        {
          "internalType": "bool",
          "name": "",
          "type": "bool"
        }
      ],
      "stateMutability": "nonpayable",
      "type": "function"
    },
    {
      "inputs": [
        {
          "internalType": "address",
          "name": "token",
          "type": "address"
        },
        {
          "internalType": "uint256",
          "name": "amount",
          "type": "uint256"
        }
      ],
      "name": "updateTokenMinAmount",
      "outputs": [
        {
          "internalType": "bool",
          "name": "",
          "type": "bool"
        }
      ],
      "stateMutability": "nonpayable",
      "type": "function"
    },
    {
      "inputs": [
        {
          "internalType": "address",
          "name": "proofAddr",
          "type": "address"
        }
      ],
      "name": "upgradProofDatasAddress",
      "outputs": [
        {
          "internalType": "bool",
          "name": "",
          "type": "bool"
        }
      ],
      "stateMutability": "nonpayable",
      "type": "function"
    },
    {
      "inputs": [
        {
          "internalType": "uint256",
          "name": "",
          "type": "uint256"
        }
      ],
      "name": "validTokenNames",
      "outputs": [
        {
          "internalType": "string",
          "name": "",
          "type": "string"
        }
      ],
      "stateMutability": "view",
      "type": "function"
    },
    {
      "stateMutability": "payable",
      "type": "receive"
    }
  ],
  "bytecode": "0x608060405234801561001057600080fd5b506127e1806100206000396000f3fe6080604052600436106101855760003560e01c80638696cf3c116100d1578063a0a8e4601161008a578063beabacc811610064578063beabacc8146103e3578063dc4d19f5146103f6578063e54f752214610416578063f2fde38b146104365761018c565b8063a0a8e46014610399578063adbf4095146103ae578063ae90b213146103ce5761018c565b80638696cf3c1461031457806387cfdbbf146103295780638c201dc81461033c5780638da5cb5b1461034f578063937e0af61461036457806395d89b41146103845761018c565b806345ca35ac1161013e5780635c975abb116101185780635c975abb146102b35780636e30199f146102c8578063715018a6146102e85780638129fc1c146102ff5761018c565b806345ca35ac1461025157806349ae11e8146102735780634dae755c146102935761018c565b806306fdde03146101915780630e136b19146101bc5780632bd0d9d6146101de578063302ed23f146101f15780633167ed7e146102045780633a0d2fc8146102245761018c565b3661018c57005b600080fd5b34801561019d57600080fd5b506101a6610456565b6040516101b391906122c5565b60405180910390f35b3480156101c857600080fd5b506101d16104e4565b6040516101b391906122ba565b6101d16101ec366004611f3c565b6104ed565b6101d16101ff366004611f91565b6105ab565b34801561021057600080fd5b506101d161021f366004611fe2565b6109e4565b34801561023057600080fd5b5061024461023f366004611f3c565b610a8d565b6040516101b391906121e0565b34801561025d57600080fd5b50610266610b57565b6040516101b391906126ad565b34801561027f57600080fd5b506101d161028e366004611fe2565b610b5d565b34801561029f57600080fd5b506102666102ae366004611f3c565b610c06565b3480156102bf57600080fd5b506101d1610c69565b3480156102d457600080fd5b506102446102e336600461202b565b610c72565b3480156102f457600080fd5b506102fd610ca6565b005b34801561030b57600080fd5b506102fd610d2f565b34801561032057600080fd5b50610244610e27565b6101d161033736600461202b565b610e36565b6101d161034a36600461206b565b610f42565b34801561035b57600080fd5b506102446110f0565b34801561037057600080fd5b5061026661037f366004611f3c565b6110ff565b34801561039057600080fd5b506101a6611162565b3480156103a557600080fd5b5061026661116f565b3480156103ba57600080fd5b506101a66103c93660046120bd565b611175565b3480156103da57600080fd5b5061024461118e565b6101d16103f1366004611f56565b6111a2565b34801561040257600080fd5b506101d1610411366004611f3c565b61121d565b34801561042257600080fd5b506101a6610431366004611f3c565b611303565b34801561044257600080fd5b506102fd610451366004611f3c565b6113cb565b609e805461046390612721565b80601f016020809104026020016040519081016040528092919081815260200182805461048f90612721565b80156104dc5780601f106104b1576101008083540402835291602001916104dc565b820191906000526020600020905b8154815290600101906020018083116104bf57829003601f168201915b505050505081565b60a05460ff1681565b60006104f761148c565b6001600160a01b03166105086110f0565b6001600160a01b0316146105375760405162461bcd60e51b815260040161052e906124d1565b60405180910390fd5b6001600160a01b0382166000908152609a6020526040812080548492919061055e90612721565b90501161057d5760405162461bcd60e51b815260040161052e9061249a565b6001600160a01b0383166000908152609a6020526040902061059e84611490565b5060019250505b50919050565b60006105b5610c69565b156105d25760405162461bcd60e51b815260040161052e906123c3565b6001600160a01b0384166000908152609a602052604081208054869291906105f990612721565b9050116106185760405162461bcd60e51b815260040161052e9061249a565b60a05461010090046001600160a01b03163314156106485760405162461bcd60e51b815260040161052e906125c1565b604051636eb1769f60e11b815285906000906001600160a01b0383169063dd62ed3e9061067b90339030906004016121f4565b60206040518083038186803b15801561069357600080fd5b505afa1580156106a7573d6000803e3d6000fd5b505050506040513d601f19601f820116820180604052508101906106cb91906120d5565b90506106d787826115d5565b5060a0546040516370a0823160e01b81526000916001600160a01b03808616926370a08231926107119261010090910416906004016121e0565b60206040518083038186803b15801561072957600080fd5b505afa15801561073d573d6000803e3d6000fd5b505050506040513d601f19601f8201168201806040525081019061076191906120d5565b9050610784883360a060019054906101000a90046001600160a01b03168561165e565b60a0546040516370a0823160e01b81526000916001600160a01b03808716926370a08231926107bd9261010090910416906004016121e0565b60206040518083038186803b1580156107d557600080fd5b505afa1580156107e9573d6000803e3d6000fd5b505050506040513d601f19601f8201168201806040525081019061080d91906120d5565b9050600061081b828461174e565b905083811115801561082d5750600081115b6108495760405162461bcd60e51b815260040161052e90612355565b6000610855858361174e565b905060008a8a8080601f016020809104026020016040519081016040528093929190818152602001838380828437600081840152601f19601f82011690508083019250505050505050905060a160009054906101000a90046001600160a01b03166001600160a01b03166381b2654a3360a060019054906101000a90046001600160a01b03168f8787876040518763ffffffff1660e01b81526004016109009695949392919061220e565b602060405180830381600087803b15801561091a57600080fd5b505af115801561092e573d6000803e3d6000fd5b505050506040513d601f19601f82011682018060405250810190610952919061200b565b61096e5760405162461bcd60e51b815260040161052e90612506565b60a060019054906101000a90046001600160a01b03166001600160a01b0316336001600160a01b03167fb169a9d3011902059bd5364ac4f9eac842768e1aa374349ede6661289710ee948e86866040516109ca93929190612299565b60405180910390a35060019b9a5050505050505050505050565b60006109ee61148c565b6001600160a01b03166109ff6110f0565b6001600160a01b031614610a255760405162461bcd60e51b815260040161052e906124d1565b6001600160a01b0383166000908152609a60205260408120805485929190610a4c90612721565b905011610a6b5760405162461bcd60e51b815260040161052e9061249a565b50506001600160a01b03919091166000908152609c6020526040902055600190565b6000610a9761148c565b6001600160a01b0316610aa86110f0565b6001600160a01b031614610ace5760405162461bcd60e51b815260040161052e906124d1565b6001600160a01b038216610af45760405162461bcd60e51b815260040161052e906123ed565b60a0546001600160a01b03838116610100909204161415610b275760405162461bcd60e51b815260040161052e90612596565b5060a080546001600160a01b03838116610100908102610100600160a81b0319841617909355919004165b919050565b60975481565b6000610b6761148c565b6001600160a01b0316610b786110f0565b6001600160a01b031614610b9e5760405162461bcd60e51b815260040161052e906124d1565b6001600160a01b0383166000908152609a60205260408120805485929190610bc590612721565b905011610be45760405162461bcd60e51b815260040161052e9061249a565b50506001600160a01b03919091166000908152609b6020526040902055600190565b6001600160a01b0381166000908152609a60205260408120805483918391610c2d90612721565b905011610c4c5760405162461bcd60e51b815260040161052e9061249a565b50506001600160a01b03166000908152609b602052604090205490565b60335460ff1690565b600060998383604051610c86929190612135565b908152604051908190036020019020546001600160a01b03169392505050565b610cae61148c565b6001600160a01b0316610cbf6110f0565b6001600160a01b031614610ce55760405162461bcd60e51b815260040161052e906124d1565b6065546040516000916001600160a01b0316907f8be0079c531659141344cd1fd0a4f28419497f9722a3daafe3b4186f6b6457e0908390a3606580546001600160a01b0319169055565b600054610100900460ff1680610d48575060005460ff16155b610d645760405162461bcd60e51b815260040161052e90612415565b600054610100900460ff16158015610d8f576000805460ff1961ff0019909116610100171660011790555b610d97611761565b604080518082019091526011808252702b34b7b630b990283937b7b31026b0b4b760791b6020909201918252610dcf91609e91611d99565b506040805180820190915260038082526256504d60e81b6020909201918252610dfa91609f91611d99565b5060a08054610100600160a81b03191633610100021790558015610e24576000805461ff00191690555b50565b60a1546001600160a01b031681565b6000610e4061148c565b6001600160a01b0316610e516110f0565b6001600160a01b031614610e775760405162461bcd60e51b815260040161052e906124d1565b82828080601f016020809104026020016040519081016040528093929190818152602001838380828437600092018290525060405190935060999250610ebf91508490612119565b908152604051908190036020019020546001600160a01b0316905080610ef75760405162461bcd60e51b815260040161052e9061253d565b610f3685858080601f0160208091040260200160405190810160405280939291908181526020018383808284376000920191909152506117e592505050565b50600195945050505050565b6000610f4c61148c565b6001600160a01b0316610f5d6110f0565b6001600160a01b031614610f835760405162461bcd60e51b815260040161052e906124d1565b83838080601f01602080910402602001604051908101604052809392919081815260200183838082843760009201919091525050825115159150610fdb90505760405162461bcd60e51b815260040161052e9061249a565b826001600160a01b0381166110025760405162461bcd60e51b815260040161052e9061256c565b61104186868080601f0160208091040260200160405190810160405280939291908181526020018383808284376000920191909152506117e592505050565b5061104b84611490565b50836099878760405161105f929190612135565b908152604080516020928190038301902080546001600160a01b0319166001600160a01b039485161790559186166000908152609a909152206110a3908787611e1d565b506110e386868080601f01602080910402602001604051908101604052809392919081815260200183838082843760009201919091525061182692505050565b5060019695505050505050565b6065546001600160a01b031690565b6001600160a01b0381166000908152609a6020526040812080548391839161112690612721565b9050116111455760405162461bcd60e51b815260040161052e9061249a565b50506001600160a01b03166000908152609c602052604090205490565b609f805461046390612721565b609d5481565b6098602052600090815260409020805461046390612721565b60a05461010090046001600160a01b031681565b60006111ac61148c565b6001600160a01b03166111bd6110f0565b6001600160a01b0316146111e35760405162461bcd60e51b815260040161052e906124d1565b6111eb610c69565b156112085760405162461bcd60e51b815260040161052e906123c3565b61121384848461193b565b5060019392505050565b600061122761148c565b6001600160a01b03166112386110f0565b6001600160a01b03161461125e5760405162461bcd60e51b815260040161052e906124d1565b6001600160a01b0382166112845760405162461bcd60e51b815260040161052e9061238c565b60a1546001600160a01b03838116911614156112b25760405162461bcd60e51b815260040161052e90612658565b60a1546001600160a01b038381169116146112fb576001609d60008282546112da91906126c2565b909155505060a180546001600160a01b0319166001600160a01b0384161790555b506001919050565b6001600160a01b0381166000908152609a6020526040902080546060919061132a90612721565b80601f016020809104026020016040519081016040528092919081815260200182805461135690612721565b80156113a35780601f10611378576101008083540402835291602001916113a3565b820191906000526020600020905b81548152906001019060200180831161138657829003601f168201915b505050505090506000815111610b525760405162461bcd60e51b815260040161052e9061249a565b6113d361148c565b6001600160a01b03166113e46110f0565b6001600160a01b03161461140a5760405162461bcd60e51b815260040161052e906124d1565b6001600160a01b0381166114305760405162461bcd60e51b815260040161052e9061230f565b6065546040516001600160a01b038084169216907f8be0079c531659141344cd1fd0a4f28419497f9722a3daafe3b4186f6b6457e090600090a3606580546001600160a01b0319166001600160a01b0392909216919091179055565b3390565b60006001600160a01b0382166114a857506001610b52565b6001600160a01b0382166000908152609a60205260408120906114cc908290611e91565b6001600160a01b0383166000908152609b60209081526040808320839055609c90915281208190558154829061150190612721565b905011156115cc576099816040516115199190612145565b90815260405190819003602001902080546001600160a01b031916905580546115ca90829061154790612721565b80601f016020809104026020016040519081016040528092919081815260200182805461157390612721565b80156115c05780601f10611595576101008083540402835291602001916115c0565b820191906000526020600020905b8154815290600101906020018083116115a357829003601f168201915b5050505050611a28565b505b50600192915050565b600080821180156115fe57506001600160a01b0383166000908152609b60205260409020548210155b801561164257506001600160a01b0383166000908152609c6020526040902054158061164257506001600160a01b0383166000908152609c60205260409020548211155b6115cc5760405162461bcd60e51b815260040161052e90612463565b600080856001600160a01b03166323b872dd8686866040516024016116859392919061225c565b6040516020818303038152906040529060e01b6020820180516001600160e01b0383818316178352505050506040516116be9190612119565b6000604051808303816000865af19150503d80600081146116fb576040519150601f19603f3d011682016040523d82523d6000602084013e611700565b606091505b509150915081801561172a57508051158061172a57508080602001905181019061172a919061200b565b6117465760405162461bcd60e51b815260040161052e90612614565b505050505050565b600061175a82846126da565b9392505050565b600054610100900460ff168061177a575060005460ff16155b6117965760405162461bcd60e51b815260040161052e90612415565b600054610100900460ff161580156117c1576000805460ff1961ff0019909116610100171660011790555b6117c9611afc565b6117d1611b6c565b8015610e24576000805461ff001916905550565b6000806099836040516117f89190612119565b908152604051908190036020019020546001600160a01b0316905061181c83611a28565b5061175a81611490565b609754600090815b6097548163ffffffff1610156118f25763ffffffff8116600090815260986020908152604091829020915161186591879101612119565b604051602081830303815290604052805190602001208160405160200161188c9190612145565b6040516020818303038152906040528051906020012014156118b45760019350505050610b52565b8080546118c090612721565b15905080156118d0575060975483145b156118df578163ffffffff1692505b50806118ea81612771565b91505061182e565b506000818152609860209081526040909120845161191292860190611d99565b506097548114156115cc576097805490600061192d83612756565b909155506001949350505050565b600080846001600160a01b031663a9059cbb8585604051602401611960929190612280565b6040516020818303038152906040529060e01b6020820180516001600160e01b0383818316178352505050506040516119999190612119565b6000604051808303816000865af19150503d80600081146119d6576040519150601f19603f3d011682016040523d82523d6000602084013e6119db565b606091505b5091509150818015611a05575080511580611a05575080806020019051810190611a05919061200b565b611a215760405162461bcd60e51b815260040161052e906122d8565b5050505050565b6000815160001415611a3c57506001610b52565b60005b6097548163ffffffff1610156115cc5763ffffffff81166000908152609860209081526040918290209151611a7691869101612119565b6040516020818303038152906040528051906020012081604051602001611a9d9190612145565b604051602081830303815290604052805190602001201415611ae957604080516020808201808452600080845263ffffffff8716815260989092529290209051611ae79290611d99565b505b5080611af481612771565b915050611a3f565b600054610100900460ff1680611b15575060005460ff16155b611b315760405162461bcd60e51b815260040161052e90612415565b600054610100900460ff16158015611b5c576000805460ff1961ff0019909116610100171660011790555b611b64611bdc565b6117d1611c4f565b600054610100900460ff1680611b85575060005460ff16155b611ba15760405162461bcd60e51b815260040161052e90612415565b600054610100900460ff16158015611bcc576000805460ff1961ff0019909116610100171660011790555b611bd4611bdc565b6117d1611ccd565b600054610100900460ff1680611bf5575060005460ff16155b611c115760405162461bcd60e51b815260040161052e90612415565b600054610100900460ff161580156117d1576000805460ff1961ff0019909116610100171660011790558015610e24576000805461ff001916905550565b600054610100900460ff1680611c68575060005460ff16155b611c845760405162461bcd60e51b815260040161052e90612415565b600054610100900460ff16158015611caf576000805460ff1961ff0019909116610100171660011790555b6033805460ff191690558015610e24576000805461ff001916905550565b600054610100900460ff1680611ce6575060005460ff16155b611d025760405162461bcd60e51b815260040161052e90612415565b600054610100900460ff16158015611d2d576000805460ff1961ff0019909116610100171660011790555b6000611d3761148c565b606580546001600160a01b0319166001600160a01b038316908117909155604051919250906000907f8be0079c531659141344cd1fd0a4f28419497f9722a3daafe3b4186f6b6457e0908290a3508015610e24576000805461ff001916905550565b828054611da590612721565b90600052602060002090601f016020900481019282611dc75760008555611e0d565b82601f10611de057805160ff1916838001178555611e0d565b82800160010185558215611e0d579182015b82811115611e0d578251825591602001919060010190611df2565b50611e19929150611ec9565b5090565b828054611e2990612721565b90600052602060002090601f016020900481019282611e4b5760008555611e0d565b82601f10611e645782800160ff19823516178555611e0d565b82800160010185558215611e0d579182015b82811115611e0d578235825591602001919060010190611e76565b508054611e9d90612721565b6000825580601f10611eaf5750610e24565b601f016020900490600052602060002090810190610e2491905b5b80821115611e195760008155600101611eca565b80356001600160a01b0381168114610b5257600080fd5b60008083601f840112611f06578182fd5b50813567ffffffffffffffff811115611f1d578182fd5b602083019150836020828501011115611f3557600080fd5b9250929050565b600060208284031215611f4d578081fd5b61175a82611ede565b600080600060608486031215611f6a578182fd5b611f7384611ede565b9250611f8160208501611ede565b9150604084013590509250925092565b600080600060408486031215611fa5578283fd5b611fae84611ede565b9250602084013567ffffffffffffffff811115611fc9578283fd5b611fd586828701611ef5565b9497909650939450505050565b60008060408385031215611ff4578182fd5b611ffd83611ede565b946020939093013593505050565b60006020828403121561201c578081fd5b8151801515811461175a578182fd5b6000806020838503121561203d578182fd5b823567ffffffffffffffff811115612053578283fd5b61205f85828601611ef5565b90969095509350505050565b60008060006040848603121561207f578283fd5b833567ffffffffffffffff811115612095578384fd5b6120a186828701611ef5565b90945092506120b4905060208501611ede565b90509250925092565b6000602082840312156120ce578081fd5b5035919050565b6000602082840312156120e6578081fd5b5051919050565b600081518084526121058160208601602086016126f1565b601f01601f19169290920160200192915050565b6000825161212b8184602087016126f1565b9190910192915050565b6000828483379101908152919050565b815460009081906002810460018083168061216157607f831692505b602080841082141561218157634e487b7160e01b87526022600452602487fd5b81801561219557600181146121a6576121d2565b60ff198616895284890196506121d2565b6121af8a6126b6565b885b868110156121ca5781548b8201529085019083016121b1565b505084890196505b509498975050505050505050565b6001600160a01b0391909116815260200190565b6001600160a01b0392831681529116602082015260400190565b6001600160a01b038781168252868116602083015285166040820152606081018490526080810183905260c060a08201819052600090612250908301846120ed565b98975050505050505050565b6001600160a01b039384168152919092166020820152604081019190915260600190565b6001600160a01b03929092168252602082015260400190565b6001600160a01b039390931683526020830191909152604082015260600190565b901515815260200190565b60006020825261175a60208301846120ed565b6020808252601f908201527f5472616e7366657248656c7065723a205452414e534645525f4641494c454400604082015260600190565b60208082526026908201527f4f776e61626c653a206e6577206f776e657220697320746865207a65726f206160408201526564647265737360d01b606082015260800190565b6020808252601e908201527f6469666620616d6f756e742076616c756520697320696e636f72726563740000604082015260600190565b6020808252601d908201527f54686520696e707574206164647265737320697320696e76616c69642e000000604082015260600190565b60208082526010908201526f14185d5cd8589b194e881c185d5cd95960821b604082015260600190565b6020808252600e908201526d061646472657373206973203078360941b604082015260600190565b6020808252602e908201527f496e697469616c697a61626c653a20636f6e747261637420697320616c72656160408201526d191e481a5b9a5d1a585b1a5e995960921b606082015260800190565b60208082526019908201527f746f6b656e20616d6f756e74206f7574206f662072616e676500000000000000604082015260600190565b60208082526018908201527f746f6b656e206164647265737320697320696e76616c69640000000000000000604082015260600190565b6020808252818101527f4f776e61626c653a2063616c6c6572206973206e6f7420746865206f776e6572604082015260600190565b6020808252601c908201527f7570646174652070726f6f6620746f206461746173206661696c656400000000604082015260600190565b6020808252601590820152741d1bdad95b881b985b59481a5cc81a5b9d985b1a59605a1b604082015260600190565b60208082526010908201526f1d1bdad95b881a5cc81a5b9d985b1a5960821b604082015260600190565b6020808252601190820152703a34329039b0b6b29030b2323932b9b99760791b604082015260600190565b60208082526033908201527f546865207061796d656e74206163636f756e7420616e6420726563656976696e604082015272339030b1b1b7bab73a1030b9329039b0b6b29760691b606082015260800190565b60208082526024908201527f5472616e7366657248656c7065723a205452414e534645525f46524f4d5f46416040820152631253115160e21b606082015260800190565b60208082526035908201527f54686520696e7075742061646472657373206973207468652073616d65206173604082015274103a34329031bab93932b73a1030b2323932b9b99760591b606082015260800190565b90815260200190565b60009081526020902090565b600082198211156126d5576126d5612795565b500190565b6000828210156126ec576126ec612795565b500390565b60005b8381101561270c5781810151838201526020016126f4565b8381111561271b576000848401525b50505050565b60028104600182168061273557607f821691505b602082108114156105a557634e487b7160e01b600052602260045260246000fd5b600060001982141561276a5761276a612795565b5060010190565b600063ffffffff8083168181141561278b5761278b612795565b6001019392505050565b634e487b7160e01b600052601160045260246000fdfea2646970667358221220f5761086d6abbdbec5ee0c399aee7400408273a29ccf633ee5653ecfe313c53b64736f6c63430008000033",
  "linkReferences": {},
  "deployedLinkReferences": {}
}