{
  "_format": "hh-sol-artifact-1",
  "contractName": "ViolasMProofState",
  "sourceName": "contracts/ViolasMProofState.sol",
  "abi": [
    {
      "anonymous": false,
      "inputs": [
        {
          "indexed": true,
          "internalType": "address",
          "name": "previousOwner",
          "type": "address"
        },
        {
          "indexed": true,
          "internalType": "address",
          "name": "newOwner",
          "type": "address"
        }
      ],
      "name": "OwnershipTransferred",
      "type": "event"
    },
    {
      "inputs": [
        {
          "internalType": "uint256",
          "name": "stateValue",
          "type": "uint256"
        }
      ],
      "name": "checkState",
      "outputs": [
        {
          "internalType": "bool",
          "name": "",
          "type": "bool"
        }
      ],
      "stateMutability": "view",
      "type": "function"
    },
    {
      "inputs": [
        {
          "internalType": "string",
          "name": "stateName",
          "type": "string"
        }
      ],
      "name": "checkState",
      "outputs": [
        {
          "internalType": "bool",
          "name": "",
          "type": "bool"
        }
      ],
      "stateMutability": "view",
      "type": "function"
    },
    {
      "inputs": [
        {
          "internalType": "string",
          "name": "fromState",
          "type": "string"
        },
        {
          "internalType": "string",
          "name": "toState",
          "type": "string"
        }
      ],
      "name": "checkStateChange",
      "outputs": [
        {
          "internalType": "bool",
          "name": "",
          "type": "bool"
        }
      ],
      "stateMutability": "view",
      "type": "function"
    },
    {
      "inputs": [
        {
          "internalType": "uint256",
          "name": "fromState",
          "type": "uint256"
        },
        {
          "internalType": "uint256",
          "name": "toState",
          "type": "uint256"
        }
      ],
      "name": "checkStateChange",
      "outputs": [
        {
          "internalType": "bool",
          "name": "",
          "type": "bool"
        }
      ],
      "stateMutability": "view",
      "type": "function"
    },
    {
      "inputs": [
        {
          "internalType": "uint256",
          "name": "stateValue",
          "type": "uint256"
        }
      ],
      "name": "getStateName",
      "outputs": [
        {
          "internalType": "string",
          "name": "",
          "type": "string"
        }
      ],
      "stateMutability": "view",
      "type": "function"
    },
    {
      "inputs": [
        {
          "internalType": "string",
          "name": "stateName",
          "type": "string"
        }
      ],
      "name": "getStateValue",
      "outputs": [
        {
          "internalType": "uint256",
          "name": "",
          "type": "uint256"
        }
      ],
      "stateMutability": "view",
      "type": "function"
    },
    {
      "inputs": [],
      "name": "initialize",
      "outputs": [],
      "stateMutability": "nonpayable",
      "type": "function"
    },
    {
      "inputs": [],
      "name": "maxStateValue",
      "outputs": [
        {
          "internalType": "uint256",
          "name": "",
          "type": "uint256"
        }
      ],
      "stateMutability": "view",
      "type": "function"
    },
    {
      "inputs": [],
      "name": "name",
      "outputs": [
        {
          "internalType": "string",
          "name": "",
          "type": "string"
        }
      ],
      "stateMutability": "view",
      "type": "function"
    },
    {
      "inputs": [],
      "name": "owner",
      "outputs": [
        {
          "internalType": "address",
          "name": "",
          "type": "address"
        }
      ],
      "stateMutability": "view",
      "type": "function"
    },
    {
      "inputs": [],
      "name": "renounceOwnership",
      "outputs": [],
      "stateMutability": "nonpayable",
      "type": "function"
    },
    {
      "inputs": [],
      "name": "symbol",
      "outputs": [
        {
          "internalType": "string",
          "name": "",
          "type": "string"
        }
      ],
      "stateMutability": "view",
      "type": "function"
    },
    {
      "inputs": [
        {
          "internalType": "address",
          "name": "newOwner",
          "type": "address"
        }
      ],
      "name": "transferOwnership",
      "outputs": [],
      "stateMutability": "nonpayable",
      "type": "function"
    }
  ],
  "bytecode": "0x608060405234801561001057600080fd5b50610ee6806100206000396000f3fe608060405234801561001057600080fd5b50600436106100cf5760003560e01c80638129fc1c1161008c57806395d89b411161006657806395d89b4114610187578063c314c3171461018f578063d6ba85f3146101a2578063f2fde38b146101b5576100cf565b80638129fc1c146101625780638910e7f31461016a5780638da5cb5b14610172576100cf565b806305f70d68146100d457806306fdde03146100fd5780630fdcf877146101125780633ee78a711461012557806360ac502b14610145578063715018a614610158575b600080fd5b6100e76100e2366004610b4a565b6101c8565b6040516100f49190610cdb565b60405180910390f35b61010561021d565b6040516100f49190610ce6565b6100e7610120366004610bb3565b6102ab565b610138610133366004610b0a565b6102c3565b6040516100f49190610e39565b6100e7610153366004610b0a565b6102ee565b61016061031b565b005b6101606103ad565b6101386105e8565b61017a6105ee565b6040516100f49190610cc7565b6101056105fd565b6100e761019d366004610bcb565b61060a565b6101056101b0366004610bb3565b61061d565b6101606101c3366004610ae3565b6106bf565b6000610214606686866040516101df929190610bec565b90815260200160405180910390205460668585604051610200929190610bec565b908152602001604051809103902054610780565b95945050505050565b6068805461022a90610e4e565b80601f016020809104026020016040519081016040528092919081815260200182805461025690610e4e565b80156102a35780601f10610278576101008083540402835291602001916102a3565b820191906000526020600020905b81548152906001019060200180831161028657829003601f168201915b505050505081565b600080821180156102bd575060675482105b92915050565b6000606683836040516102d7929190610bec565b908152602001604051809103902054905092915050565b60008060668484604051610303929190610bec565b90815260200160405180910390205411905092915050565b61032361083c565b6001600160a01b03166103346105ee565b6001600160a01b0316146103635760405162461bcd60e51b815260040161035a90610e04565b60405180910390fd5b6033546040516000916001600160a01b0316907f8be0079c531659141344cd1fd0a4f28419497f9722a3daafe3b4186f6b6457e0908390a3603380546001600160a01b0319169055565b600054610100900460ff16806103c6575060005460ff16155b6103e25760405162461bcd60e51b815260040161035a90610db6565b600054610100900460ff1615801561040d576000805460ff1961ff0019909116610100171660011790555b610415610840565b6040805180820190915260128082527156696f6c61732050726f6f6620537461746560701b602090920191825261044e91606891610a03565b506040805180820190915260038082526256505360e81b602090920191825261047991606991610a03565b50600160678181556040805180820190915260058152641cdd185c9d60da1b60208201529160659160009190826104af83610e89565b91905055815260200190815260200160002090805190602001906104d4929190610a03565b50604080518082019091526004815263073746f760e41b602082015260678054606591600091908261050583610e89565b919050558152602001908152602001600020908051906020019061052a929190610a03565b50604080518082019091526003815262195b9960ea1b602082015260678054606591600091908261055a83610e89565b919050558152602001908152602001600020908051906020019061057f929190610a03565b5060005b6067548110156105d257806066606560008481526020019081526020016000206040516105b09190610bfc565b90815260405190819003602001902055806105ca81610e89565b915050610583565b5080156105e5576000805461ff00191690555b50565b60675481565b6033546001600160a01b031690565b6069805461022a90610e4e565b60006106168383610780565b9392505050565b600081815260656020526040902080546060919061063a90610e4e565b80601f016020809104026020016040519081016040528092919081815260200182805461066690610e4e565b80156106b35780601f10610688576101008083540402835291602001916106b3565b820191906000526020600020905b81548152906001019060200180831161069657829003601f168201915b50505050509050919050565b6106c761083c565b6001600160a01b03166106d86105ee565b6001600160a01b0316146106fe5760405162461bcd60e51b815260040161035a90610e04565b6001600160a01b0381166107245760405162461bcd60e51b815260040161035a90610d70565b6033546040516001600160a01b038084169216907f8be0079c531659141344cd1fd0a4f28419497f9722a3daafe3b4186f6b6457e090600090a3603380546001600160a01b0319166001600160a01b0392909216919091179055565b60008183108015610792575060018310155b801561079f575060675482105b6107bb5760405162461bcd60e51b815260040161035a90610d39565b60666040516107c990610c97565b90815260200160405180910390205483148015610826575060666040516107ef90610cb7565b9081526020016040518091039020548214806108265750606660405161081490610ca8565b90815260200160405180910390205482145b15610833575060016102bd565b50600092915050565b3390565b600054610100900460ff1680610859575060005460ff16155b6108755760405162461bcd60e51b815260040161035a90610db6565b600054610100900460ff161580156108a0576000805460ff1961ff0019909116610100171660011790555b6108a86108c4565b6108b0610937565b80156105e5576000805461ff001916905550565b600054610100900460ff16806108dd575060005460ff16155b6108f95760405162461bcd60e51b815260040161035a90610db6565b600054610100900460ff161580156108b0576000805460ff1961ff00199091166101001716600117905580156105e5576000805461ff001916905550565b600054610100900460ff1680610950575060005460ff16155b61096c5760405162461bcd60e51b815260040161035a90610db6565b600054610100900460ff16158015610997576000805460ff1961ff0019909116610100171660011790555b60006109a161083c565b603380546001600160a01b0319166001600160a01b038316908117909155604051919250906000907f8be0079c531659141344cd1fd0a4f28419497f9722a3daafe3b4186f6b6457e0908290a35080156105e5576000805461ff001916905550565b828054610a0f90610e4e565b90600052602060002090601f016020900481019282610a315760008555610a77565b82601f10610a4a57805160ff1916838001178555610a77565b82800160010185558215610a77579182015b82811115610a77578251825591602001919060010190610a5c565b50610a83929150610a87565b5090565b5b80821115610a835760008155600101610a88565b60008083601f840112610aad578182fd5b50813567ffffffffffffffff811115610ac4578182fd5b602083019150836020828501011115610adc57600080fd5b9250929050565b600060208284031215610af4578081fd5b81356001600160a01b0381168114610616578182fd5b60008060208385031215610b1c578081fd5b823567ffffffffffffffff811115610b32578182fd5b610b3e85828601610a9c565b90969095509350505050565b60008060008060408587031215610b5f578182fd5b843567ffffffffffffffff80821115610b76578384fd5b610b8288838901610a9c565b90965094506020870135915080821115610b9a578384fd5b50610ba787828801610a9c565b95989497509550505050565b600060208284031215610bc4578081fd5b5035919050565b60008060408385031215610bdd578182fd5b50508035926020909101359150565b6000828483379101908152919050565b8154600090819060028104600180831680610c1857607f831692505b6020808410821415610c3857634e487b7160e01b87526022600452602487fd5b818015610c4c5760018114610c5d57610c89565b60ff19861689528489019650610c89565b610c668a610e42565b885b86811015610c815781548b820152908501908301610c68565b505084890196505b509498975050505050505050565b641cdd185c9d60da1b815260050190565b62195b9960ea1b815260030190565b63073746f760e41b815260040190565b6001600160a01b0391909116815260200190565b901515815260200190565b6000602080835283518082850152825b81811015610d1257858101830151858201604001528201610cf6565b81811115610d235783604083870101525b50601f01601f1916929092016040019392505050565b6020808252601c908201527f696e7075742073746174652076616c756520697320696e76616c696400000000604082015260600190565b60208082526026908201527f4f776e61626c653a206e6577206f776e657220697320746865207a65726f206160408201526564647265737360d01b606082015260800190565b6020808252602e908201527f496e697469616c697a61626c653a20636f6e747261637420697320616c72656160408201526d191e481a5b9a5d1a585b1a5e995960921b606082015260800190565b6020808252818101527f4f776e61626c653a2063616c6c6572206973206e6f7420746865206f776e6572604082015260600190565b90815260200190565b60009081526020902090565b600281046001821680610e6257607f821691505b60208210811415610e8357634e487b7160e01b600052602260045260246000fd5b50919050565b6000600019821415610ea957634e487b7160e01b81526011600452602481fd5b506001019056fea2646970667358221220124b1fd75001b487eb9e8f2920dcc01fb4c69967ccff50d054f2b4208f04434564736f6c63430008000033",
  "linkReferences": {},
  "deployedLinkReferences": {}
}