{
  "_format": "hh-sol-artifact-1",
  "contractName": "ViolasMProofMain",
  "sourceName": "contracts/ViolasMProofMain.sol",
  "abi": [
    {
      "anonymous": false,
      "inputs": [
        {
          "indexed": true,
          "internalType": "address",
          "name": "previousOwner",
          "type": "address"
        },
        {
          "indexed": true,
          "internalType": "address",
          "name": "newOwner",
          "type": "address"
        }
      ],
      "name": "OwnershipTransferred",
      "type": "event"
    },
    {
      "anonymous": false,
      "inputs": [
        {
          "indexed": false,
          "internalType": "address",
          "name": "account",
          "type": "address"
        }
      ],
      "name": "Paused",
      "type": "event"
    },
    {
      "anonymous": false,
      "inputs": [
        {
          "indexed": true,
          "internalType": "address",
          "name": "from",
          "type": "address"
        },
        {
          "indexed": true,
          "internalType": "address",
          "name": "to",
          "type": "address"
        },
        {
          "indexed": false,
          "internalType": "address",
          "name": "token",
          "type": "address"
        },
        {
          "indexed": false,
          "internalType": "uint256",
          "name": "amount",
          "type": "uint256"
        },
        {
          "indexed": false,
          "internalType": "uint256",
          "name": "fee",
          "type": "uint256"
        }
      ],
      "name": "TransferProof",
      "type": "event"
    },
    {
      "anonymous": false,
      "inputs": [
        {
          "indexed": false,
          "internalType": "address",
          "name": "account",
          "type": "address"
        }
      ],
      "name": "Unpaused",
      "type": "event"
    },
    {
      "inputs": [],
      "name": "contractVersion",
      "outputs": [
        {
          "internalType": "uint256",
          "name": "",
          "type": "uint256"
        }
      ],
      "stateMutability": "view",
      "type": "function"
    },
    {
      "inputs": [],
      "name": "deprecated",
      "outputs": [
        {
          "internalType": "bool",
          "name": "",
          "type": "bool"
        }
      ],
      "stateMutability": "view",
      "type": "function"
    },
    {
      "inputs": [],
      "name": "initialize",
      "outputs": [],
      "stateMutability": "nonpayable",
      "type": "function"
    },
    {
      "inputs": [],
      "name": "name",
      "outputs": [
        {
          "internalType": "string",
          "name": "",
          "type": "string"
        }
      ],
      "stateMutability": "view",
      "type": "function"
    },
    {
      "inputs": [],
      "name": "owner",
      "outputs": [
        {
          "internalType": "address",
          "name": "",
          "type": "address"
        }
      ],
      "stateMutability": "view",
      "type": "function"
    },
    {
      "inputs": [],
      "name": "paused",
      "outputs": [
        {
          "internalType": "bool",
          "name": "",
          "type": "bool"
        }
      ],
      "stateMutability": "view",
      "type": "function"
    },
    {
      "inputs": [],
      "name": "payee",
      "outputs": [
        {
          "internalType": "address",
          "name": "",
          "type": "address"
        }
      ],
      "stateMutability": "view",
      "type": "function"
    },
    {
      "inputs": [],
      "name": "proofAddress",
      "outputs": [
        {
          "internalType": "address",
          "name": "",
          "type": "address"
        }
      ],
      "stateMutability": "view",
      "type": "function"
    },
    {
      "inputs": [
        {
          "internalType": "address",
          "name": "token",
          "type": "address"
        }
      ],
      "name": "removeTokenWithAddress",
      "outputs": [
        {
          "internalType": "bool",
          "name": "",
          "type": "bool"
        }
      ],
      "stateMutability": "payable",
      "type": "function"
    },
    {
      "inputs": [
        {
          "internalType": "string",
          "name": "name",
          "type": "string"
        }
      ],
      "name": "removeTokenWithName",
      "outputs": [
        {
          "internalType": "bool",
          "name": "",
          "type": "bool"
        }
      ],
      "stateMutability": "payable",
      "type": "function"
    },
    {
      "inputs": [],
      "name": "renounceOwnership",
      "outputs": [],
      "stateMutability": "nonpayable",
      "type": "function"
    },
    {
      "inputs": [],
      "name": "symbol",
      "outputs": [
        {
          "internalType": "string",
          "name": "",
          "type": "string"
        }
      ],
      "stateMutability": "view",
      "type": "function"
    },
    {
      "inputs": [
        {
          "internalType": "string",
          "name": "name",
          "type": "string"
        }
      ],
      "name": "tokenAddress",
      "outputs": [
        {
          "internalType": "address",
          "name": "tokenAddrr",
          "type": "address"
        }
      ],
      "stateMutability": "view",
      "type": "function"
    },
    {
      "inputs": [
        {
          "internalType": "address",
          "name": "token",
          "type": "address"
        }
      ],
      "name": "tokenMaxAmount",
      "outputs": [
        {
          "internalType": "uint256",
          "name": "",
          "type": "uint256"
        }
      ],
      "stateMutability": "view",
      "type": "function"
    },
    {
      "inputs": [],
      "name": "tokenMaxCount",
      "outputs": [
        {
          "internalType": "uint256",
          "name": "",
          "type": "uint256"
        }
      ],
      "stateMutability": "view",
      "type": "function"
    },
    {
      "inputs": [
        {
          "internalType": "address",
          "name": "token",
          "type": "address"
        }
      ],
      "name": "tokenMinAmount",
      "outputs": [
        {
          "internalType": "uint256",
          "name": "",
          "type": "uint256"
        }
      ],
      "stateMutability": "view",
      "type": "function"
    },
    {
      "inputs": [
        {
          "internalType": "address",
          "name": "tokenAddr",
          "type": "address"
        }
      ],
      "name": "tokenName",
      "outputs": [
        {
          "internalType": "string",
          "name": "name",
          "type": "string"
        }
      ],
      "stateMutability": "view",
      "type": "function"
    },
    {
      "inputs": [
        {
          "internalType": "address",
          "name": "tokenAddrr",
          "type": "address"
        },
        {
          "internalType": "address",
          "name": "recipient",
          "type": "address"
        },
        {
          "internalType": "uint256",
          "name": "amount",
          "type": "uint256"
        }
      ],
      "name": "transfer",
      "outputs": [
        {
          "internalType": "bool",
          "name": "",
          "type": "bool"
        }
      ],
      "stateMutability": "payable",
      "type": "function"
    },
    {
      "inputs": [
        {
          "internalType": "address",
          "name": "newOwner",
          "type": "address"
        }
      ],
      "name": "transferOwnership",
      "outputs": [],
      "stateMutability": "nonpayable",
      "type": "function"
    },
    {
      "inputs": [
        {
          "internalType": "address",
          "name": "newPayee",
          "type": "address"
        }
      ],
      "name": "transferPayeeship",
      "outputs": [
        {
          "internalType": "address",
          "name": "",
          "type": "address"
        }
      ],
      "stateMutability": "nonpayable",
      "type": "function"
    },
    {
      "inputs": [
        {
          "internalType": "address",
          "name": "tokenAddr",
          "type": "address"
        },
        {
          "internalType": "string",
          "name": "datas",
          "type": "string"
        }
      ],
      "name": "transferProof",
      "outputs": [
        {
          "internalType": "bool",
          "name": "",
          "type": "bool"
        }
      ],
      "stateMutability": "payable",
      "type": "function"
    },
    {
      "inputs": [
        {
          "internalType": "string",
          "name": "name",
          "type": "string"
        },
        {
          "internalType": "address",
          "name": "tokenAddr",
          "type": "address"
        }
      ],
      "name": "updateToken",
      "outputs": [
        {
          "internalType": "bool",
          "name": "",
          "type": "bool"
        }
      ],
      "stateMutability": "payable",
      "type": "function"
    },
    {
      "inputs": [
        {
          "internalType": "address",
          "name": "token",
          "type": "address"
        },
        {
          "internalType": "uint256",
          "name": "amount",
          "type": "uint256"
        }
      ],
      "name": "updateTokenMaxAmount",
      "outputs": [
        {
          "internalType": "bool",
          "name": "",
          "type": "bool"
        }
      ],
      "stateMutability": "nonpayable",
      "type": "function"
    },
    {
      "inputs": [
        {
          "internalType": "address",
          "name": "token",
          "type": "address"
        },
        {
          "internalType": "uint256",
          "name": "amount",
          "type": "uint256"
        }
      ],
      "name": "updateTokenMinAmount",
      "outputs": [
        {
          "internalType": "bool",
          "name": "",
          "type": "bool"
        }
      ],
      "stateMutability": "nonpayable",
      "type": "function"
    },
    {
      "inputs": [
        {
          "internalType": "address",
          "name": "proofAddr",
          "type": "address"
        }
      ],
      "name": "upgradProofDatasAddress",
      "outputs": [
        {
          "internalType": "bool",
          "name": "",
          "type": "bool"
        }
      ],
      "stateMutability": "nonpayable",
      "type": "function"
    },
    {
      "inputs": [
        {
          "internalType": "uint256",
          "name": "",
          "type": "uint256"
        }
      ],
      "name": "validTokenNames",
      "outputs": [
        {
          "internalType": "string",
          "name": "",
          "type": "string"
        }
      ],
      "stateMutability": "view",
      "type": "function"
    },
    {
      "stateMutability": "payable",
      "type": "receive"
    }
  ],
  "bytecode": "0x608060405234801561001057600080fd5b506127cd806100206000396000f3fe6080604052600436106101855760003560e01c80638696cf3c116100d1578063a0a8e4601161008a578063beabacc811610064578063beabacc8146103e3578063dc4d19f5146103f6578063e54f752214610416578063f2fde38b146104365761018c565b8063a0a8e46014610399578063adbf4095146103ae578063ae90b213146103ce5761018c565b80638696cf3c1461031457806387cfdbbf146103295780638c201dc81461033c5780638da5cb5b1461034f578063937e0af61461036457806395d89b41146103845761018c565b806345ca35ac1161013e5780635c975abb116101185780635c975abb146102b35780636e30199f146102c8578063715018a6146102e85780638129fc1c146102ff5761018c565b806345ca35ac1461025157806349ae11e8146102735780634dae755c146102935761018c565b806306fdde03146101915780630e136b19146101bc5780632bd0d9d6146101de578063302ed23f146101f15780633167ed7e146102045780633a0d2fc8146102245761018c565b3661018c57005b600080fd5b34801561019d57600080fd5b506101a6610456565b6040516101b391906122b1565b60405180910390f35b3480156101c857600080fd5b506101d16104e4565b6040516101b391906122a6565b6101d16101ec366004611f28565b6104ed565b6101d16101ff366004611f7d565b610592565b34801561021057600080fd5b506101d161021f366004611fce565b6109cb565b34801561023057600080fd5b5061024461023f366004611f28565b610a74565b6040516101b391906121cc565b34801561025d57600080fd5b50610266610b3e565b6040516101b39190612699565b34801561027f57600080fd5b506101d161028e366004611fce565b610b44565b34801561029f57600080fd5b506102666102ae366004611f28565b610bed565b3480156102bf57600080fd5b506101d1610c50565b3480156102d457600080fd5b506102446102e3366004612017565b610c59565b3480156102f457600080fd5b506102fd610c8d565b005b34801561030b57600080fd5b506102fd610d16565b34801561032057600080fd5b50610244610e0e565b6101d1610337366004612017565b610e1d565b6101d161034a366004612057565b610f29565b34801561035b57600080fd5b506102446110d7565b34801561037057600080fd5b5061026661037f366004611f28565b6110e6565b34801561039057600080fd5b506101a6611149565b3480156103a557600080fd5b50610266611156565b3480156103ba57600080fd5b506101a66103c93660046120a9565b61115c565b3480156103da57600080fd5b50610244611175565b6101d16103f1366004611f42565b611189565b34801561040257600080fd5b506101d1610411366004611f28565b611204565b34801561042257600080fd5b506101a6610431366004611f28565b6112ea565b34801561044257600080fd5b506102fd610451366004611f28565b6113b2565b609e80546104639061270d565b80601f016020809104026020016040519081016040528092919081815260200182805461048f9061270d565b80156104dc5780601f106104b1576101008083540402835291602001916104dc565b820191906000526020600020905b8154815290600101906020018083116104bf57829003601f168201915b505050505081565b60a05460ff1681565b60006104f7611473565b6001600160a01b03166105086110d7565b6001600160a01b0316146105375760405162461bcd60e51b815260040161052e906124bd565b60405180910390fd5b6001600160a01b0382166000908152609a6020526040812080548492919061055e9061270d565b90501161057d5760405162461bcd60e51b815260040161052e90612486565b61058683611477565b50600191505b50919050565b600061059c610c50565b156105b95760405162461bcd60e51b815260040161052e906123af565b6001600160a01b0384166000908152609a602052604081208054869291906105e09061270d565b9050116105ff5760405162461bcd60e51b815260040161052e90612486565b60a05461010090046001600160a01b031633141561062f5760405162461bcd60e51b815260040161052e906125ad565b604051636eb1769f60e11b815285906000906001600160a01b0383169063dd62ed3e9061066290339030906004016121e0565b60206040518083038186803b15801561067a57600080fd5b505afa15801561068e573d6000803e3d6000fd5b505050506040513d601f19601f820116820180604052508101906106b291906120c1565b90506106be87826115c1565b5060a0546040516370a0823160e01b81526000916001600160a01b03808616926370a08231926106f89261010090910416906004016121cc565b60206040518083038186803b15801561071057600080fd5b505afa158015610724573d6000803e3d6000fd5b505050506040513d601f19601f8201168201806040525081019061074891906120c1565b905061076b883360a060019054906101000a90046001600160a01b03168561164a565b60a0546040516370a0823160e01b81526000916001600160a01b03808716926370a08231926107a49261010090910416906004016121cc565b60206040518083038186803b1580156107bc57600080fd5b505afa1580156107d0573d6000803e3d6000fd5b505050506040513d601f19601f820116820180604052508101906107f491906120c1565b90506000610802828461173a565b90508381111580156108145750600081115b6108305760405162461bcd60e51b815260040161052e90612341565b600061083c858361173a565b905060008a8a8080601f016020809104026020016040519081016040528093929190818152602001838380828437600081840152601f19601f82011690508083019250505050505050905060a160009054906101000a90046001600160a01b03166001600160a01b03166381b2654a3360a060019054906101000a90046001600160a01b03168f8787876040518763ffffffff1660e01b81526004016108e7969594939291906121fa565b602060405180830381600087803b15801561090157600080fd5b505af1158015610915573d6000803e3d6000fd5b505050506040513d601f19601f820116820180604052508101906109399190611ff7565b6109555760405162461bcd60e51b815260040161052e906124f2565b60a060019054906101000a90046001600160a01b03166001600160a01b0316336001600160a01b03167fb169a9d3011902059bd5364ac4f9eac842768e1aa374349ede6661289710ee948e86866040516109b193929190612285565b60405180910390a35060019b9a5050505050505050505050565b60006109d5611473565b6001600160a01b03166109e66110d7565b6001600160a01b031614610a0c5760405162461bcd60e51b815260040161052e906124bd565b6001600160a01b0383166000908152609a60205260408120805485929190610a339061270d565b905011610a525760405162461bcd60e51b815260040161052e90612486565b50506001600160a01b03919091166000908152609c6020526040902055600190565b6000610a7e611473565b6001600160a01b0316610a8f6110d7565b6001600160a01b031614610ab55760405162461bcd60e51b815260040161052e906124bd565b6001600160a01b038216610adb5760405162461bcd60e51b815260040161052e906123d9565b60a0546001600160a01b03838116610100909204161415610b0e5760405162461bcd60e51b815260040161052e90612582565b5060a080546001600160a01b03838116610100908102610100600160a81b0319841617909355919004165b919050565b60975481565b6000610b4e611473565b6001600160a01b0316610b5f6110d7565b6001600160a01b031614610b855760405162461bcd60e51b815260040161052e906124bd565b6001600160a01b0383166000908152609a60205260408120805485929190610bac9061270d565b905011610bcb5760405162461bcd60e51b815260040161052e90612486565b50506001600160a01b03919091166000908152609b6020526040902055600190565b6001600160a01b0381166000908152609a60205260408120805483918391610c149061270d565b905011610c335760405162461bcd60e51b815260040161052e90612486565b50506001600160a01b03166000908152609b602052604090205490565b60335460ff1690565b600060998383604051610c6d929190612121565b908152604051908190036020019020546001600160a01b03169392505050565b610c95611473565b6001600160a01b0316610ca66110d7565b6001600160a01b031614610ccc5760405162461bcd60e51b815260040161052e906124bd565b6065546040516000916001600160a01b0316907f8be0079c531659141344cd1fd0a4f28419497f9722a3daafe3b4186f6b6457e0908390a3606580546001600160a01b0319169055565b600054610100900460ff1680610d2f575060005460ff16155b610d4b5760405162461bcd60e51b815260040161052e90612401565b600054610100900460ff16158015610d76576000805460ff1961ff0019909116610100171660011790555b610d7e61174d565b604080518082019091526011808252702b34b7b630b990283937b7b31026b0b4b760791b6020909201918252610db691609e91611d85565b506040805180820190915260038082526256504d60e81b6020909201918252610de191609f91611d85565b5060a08054610100600160a81b03191633610100021790558015610e0b576000805461ff00191690555b50565b60a1546001600160a01b031681565b6000610e27611473565b6001600160a01b0316610e386110d7565b6001600160a01b031614610e5e5760405162461bcd60e51b815260040161052e906124bd565b82828080601f016020809104026020016040519081016040528093929190818152602001838380828437600092018290525060405190935060999250610ea691508490612105565b908152604051908190036020019020546001600160a01b0316905080610ede5760405162461bcd60e51b815260040161052e90612529565b610f1d85858080601f0160208091040260200160405190810160405280939291908181526020018383808284376000920191909152506117d192505050565b50600195945050505050565b6000610f33611473565b6001600160a01b0316610f446110d7565b6001600160a01b031614610f6a5760405162461bcd60e51b815260040161052e906124bd565b83838080601f01602080910402602001604051908101604052809392919081815260200183838082843760009201919091525050825115159150610fc290505760405162461bcd60e51b815260040161052e90612486565b826001600160a01b038116610fe95760405162461bcd60e51b815260040161052e90612558565b61102886868080601f0160208091040260200160405190810160405280939291908181526020018383808284376000920191909152506117d192505050565b5061103284611477565b508360998787604051611046929190612121565b908152604080516020928190038301902080546001600160a01b0319166001600160a01b039485161790559186166000908152609a9091522061108a908787611e09565b506110ca86868080601f01602080910402602001604051908101604052809392919081815260200183838082843760009201919091525061181292505050565b5060019695505050505050565b6065546001600160a01b031690565b6001600160a01b0381166000908152609a6020526040812080548391839161110d9061270d565b90501161112c5760405162461bcd60e51b815260040161052e90612486565b50506001600160a01b03166000908152609c602052604090205490565b609f80546104639061270d565b609d5481565b609860205260009081526040902080546104639061270d565b60a05461010090046001600160a01b031681565b6000611193611473565b6001600160a01b03166111a46110d7565b6001600160a01b0316146111ca5760405162461bcd60e51b815260040161052e906124bd565b6111d2610c50565b156111ef5760405162461bcd60e51b815260040161052e906123af565b6111fa848484611927565b5060019392505050565b600061120e611473565b6001600160a01b031661121f6110d7565b6001600160a01b0316146112455760405162461bcd60e51b815260040161052e906124bd565b6001600160a01b03821661126b5760405162461bcd60e51b815260040161052e90612378565b60a1546001600160a01b03838116911614156112995760405162461bcd60e51b815260040161052e90612644565b60a1546001600160a01b038381169116146112e2576001609d60008282546112c191906126ae565b909155505060a180546001600160a01b0319166001600160a01b0384161790555b506001919050565b6001600160a01b0381166000908152609a602052604090208054606091906113119061270d565b80601f016020809104026020016040519081016040528092919081815260200182805461133d9061270d565b801561138a5780601f1061135f5761010080835404028352916020019161138a565b820191906000526020600020905b81548152906001019060200180831161136d57829003601f168201915b505050505090506000815111610b395760405162461bcd60e51b815260040161052e90612486565b6113ba611473565b6001600160a01b03166113cb6110d7565b6001600160a01b0316146113f15760405162461bcd60e51b815260040161052e906124bd565b6001600160a01b0381166114175760405162461bcd60e51b815260040161052e906122fb565b6065546040516001600160a01b038084169216907f8be0079c531659141344cd1fd0a4f28419497f9722a3daafe3b4186f6b6457e090600090a3606580546001600160a01b0319166001600160a01b0392909216919091179055565b3390565b60006001600160a01b03821661148f57506001610b39565b6001600160a01b0382166000908152609a602052604081206114b091611e7d565b6001600160a01b0382166000908152609b60209081526040808320839055609c8252808320839055609a9091528120805490919082906114ef9061270d565b905011156115b8576099816040516115079190612131565b90815260405190819003602001902080546001600160a01b031916905580546105869082906115359061270d565b80601f01602080910402602001604051908101604052809291908181526020018280546115619061270d565b80156115ae5780601f10611583576101008083540402835291602001916115ae565b820191906000526020600020905b81548152906001019060200180831161159157829003601f168201915b5050505050611a14565b50600192915050565b600080821180156115ea57506001600160a01b0383166000908152609b60205260409020548210155b801561162e57506001600160a01b0383166000908152609c6020526040902054158061162e57506001600160a01b0383166000908152609c60205260409020548211155b6115b85760405162461bcd60e51b815260040161052e9061244f565b600080856001600160a01b03166323b872dd86868660405160240161167193929190612248565b6040516020818303038152906040529060e01b6020820180516001600160e01b0383818316178352505050506040516116aa9190612105565b6000604051808303816000865af19150503d80600081146116e7576040519150601f19603f3d011682016040523d82523d6000602084013e6116ec565b606091505b50915091508180156117165750805115806117165750808060200190518101906117169190611ff7565b6117325760405162461bcd60e51b815260040161052e90612600565b505050505050565b600061174682846126c6565b9392505050565b600054610100900460ff1680611766575060005460ff16155b6117825760405162461bcd60e51b815260040161052e90612401565b600054610100900460ff161580156117ad576000805460ff1961ff0019909116610100171660011790555b6117b5611ae8565b6117bd611b58565b8015610e0b576000805461ff001916905550565b6000806099836040516117e49190612105565b908152604051908190036020019020546001600160a01b0316905061180883611a14565b5061174681611477565b609754600090815b6097548163ffffffff1610156118de5763ffffffff8116600090815260986020908152604091829020915161185191879101612105565b60405160208183030381529060405280519060200120816040516020016118789190612131565b6040516020818303038152906040528051906020012014156118a05760019350505050610b39565b8080546118ac9061270d565b15905080156118bc575060975483145b156118cb578163ffffffff1692505b50806118d68161275d565b91505061181a565b50600081815260986020908152604090912084516118fe92860190611d85565b506097548114156115b8576097805490600061191983612742565b909155506001949350505050565b600080846001600160a01b031663a9059cbb858560405160240161194c92919061226c565b6040516020818303038152906040529060e01b6020820180516001600160e01b0383818316178352505050506040516119859190612105565b6000604051808303816000865af19150503d80600081146119c2576040519150601f19603f3d011682016040523d82523d6000602084013e6119c7565b606091505b50915091508180156119f15750805115806119f15750808060200190518101906119f19190611ff7565b611a0d5760405162461bcd60e51b815260040161052e906122c4565b5050505050565b6000815160001415611a2857506001610b39565b60005b6097548163ffffffff1610156115b85763ffffffff81166000908152609860209081526040918290209151611a6291869101612105565b6040516020818303038152906040528051906020012081604051602001611a899190612131565b604051602081830303815290604052805190602001201415611ad557604080516020808201808452600080845263ffffffff8716815260989092529290209051611ad39290611d85565b505b5080611ae08161275d565b915050611a2b565b600054610100900460ff1680611b01575060005460ff16155b611b1d5760405162461bcd60e51b815260040161052e90612401565b600054610100900460ff16158015611b48576000805460ff1961ff0019909116610100171660011790555b611b50611bc8565b6117bd611c3b565b600054610100900460ff1680611b71575060005460ff16155b611b8d5760405162461bcd60e51b815260040161052e90612401565b600054610100900460ff16158015611bb8576000805460ff1961ff0019909116610100171660011790555b611bc0611bc8565b6117bd611cb9565b600054610100900460ff1680611be1575060005460ff16155b611bfd5760405162461bcd60e51b815260040161052e90612401565b600054610100900460ff161580156117bd576000805460ff1961ff0019909116610100171660011790558015610e0b576000805461ff001916905550565b600054610100900460ff1680611c54575060005460ff16155b611c705760405162461bcd60e51b815260040161052e90612401565b600054610100900460ff16158015611c9b576000805460ff1961ff0019909116610100171660011790555b6033805460ff191690558015610e0b576000805461ff001916905550565b600054610100900460ff1680611cd2575060005460ff16155b611cee5760405162461bcd60e51b815260040161052e90612401565b600054610100900460ff16158015611d19576000805460ff1961ff0019909116610100171660011790555b6000611d23611473565b606580546001600160a01b0319166001600160a01b038316908117909155604051919250906000907f8be0079c531659141344cd1fd0a4f28419497f9722a3daafe3b4186f6b6457e0908290a3508015610e0b576000805461ff001916905550565b828054611d919061270d565b90600052602060002090601f016020900481019282611db35760008555611df9565b82601f10611dcc57805160ff1916838001178555611df9565b82800160010185558215611df9579182015b82811115611df9578251825591602001919060010190611dde565b50611e05929150611eb5565b5090565b828054611e159061270d565b90600052602060002090601f016020900481019282611e375760008555611df9565b82601f10611e505782800160ff19823516178555611df9565b82800160010185558215611df9579182015b82811115611df9578235825591602001919060010190611e62565b508054611e899061270d565b6000825580601f10611e9b5750610e0b565b601f016020900490600052602060002090810190610e0b91905b5b80821115611e055760008155600101611eb6565b80356001600160a01b0381168114610b3957600080fd5b60008083601f840112611ef2578182fd5b50813567ffffffffffffffff811115611f09578182fd5b602083019150836020828501011115611f2157600080fd5b9250929050565b600060208284031215611f39578081fd5b61174682611eca565b600080600060608486031215611f56578182fd5b611f5f84611eca565b9250611f6d60208501611eca565b9150604084013590509250925092565b600080600060408486031215611f91578283fd5b611f9a84611eca565b9250602084013567ffffffffffffffff811115611fb5578283fd5b611fc186828701611ee1565b9497909650939450505050565b60008060408385031215611fe0578182fd5b611fe983611eca565b946020939093013593505050565b600060208284031215612008578081fd5b81518015158114611746578182fd5b60008060208385031215612029578182fd5b823567ffffffffffffffff81111561203f578283fd5b61204b85828601611ee1565b90969095509350505050565b60008060006040848603121561206b578283fd5b833567ffffffffffffffff811115612081578384fd5b61208d86828701611ee1565b90945092506120a0905060208501611eca565b90509250925092565b6000602082840312156120ba578081fd5b5035919050565b6000602082840312156120d2578081fd5b5051919050565b600081518084526120f18160208601602086016126dd565b601f01601f19169290920160200192915050565b600082516121178184602087016126dd565b9190910192915050565b6000828483379101908152919050565b815460009081906002810460018083168061214d57607f831692505b602080841082141561216d57634e487b7160e01b87526022600452602487fd5b8180156121815760018114612192576121be565b60ff198616895284890196506121be565b61219b8a6126a2565b885b868110156121b65781548b82015290850190830161219d565b505084890196505b509498975050505050505050565b6001600160a01b0391909116815260200190565b6001600160a01b0392831681529116602082015260400190565b6001600160a01b038781168252868116602083015285166040820152606081018490526080810183905260c060a0820181905260009061223c908301846120d9565b98975050505050505050565b6001600160a01b039384168152919092166020820152604081019190915260600190565b6001600160a01b03929092168252602082015260400190565b6001600160a01b039390931683526020830191909152604082015260600190565b901515815260200190565b60006020825261174660208301846120d9565b6020808252601f908201527f5472616e7366657248656c7065723a205452414e534645525f4641494c454400604082015260600190565b60208082526026908201527f4f776e61626c653a206e6577206f776e657220697320746865207a65726f206160408201526564647265737360d01b606082015260800190565b6020808252601e908201527f6469666620616d6f756e742076616c756520697320696e636f72726563740000604082015260600190565b6020808252601d908201527f54686520696e707574206164647265737320697320696e76616c69642e000000604082015260600190565b60208082526010908201526f14185d5cd8589b194e881c185d5cd95960821b604082015260600190565b6020808252600e908201526d061646472657373206973203078360941b604082015260600190565b6020808252602e908201527f496e697469616c697a61626c653a20636f6e747261637420697320616c72656160408201526d191e481a5b9a5d1a585b1a5e995960921b606082015260800190565b60208082526019908201527f746f6b656e20616d6f756e74206f7574206f662072616e676500000000000000604082015260600190565b60208082526018908201527f746f6b656e206164647265737320697320696e76616c69640000000000000000604082015260600190565b6020808252818101527f4f776e61626c653a2063616c6c6572206973206e6f7420746865206f776e6572604082015260600190565b6020808252601c908201527f7570646174652070726f6f6620746f206461746173206661696c656400000000604082015260600190565b6020808252601590820152741d1bdad95b881b985b59481a5cc81a5b9d985b1a59605a1b604082015260600190565b60208082526010908201526f1d1bdad95b881a5cc81a5b9d985b1a5960821b604082015260600190565b6020808252601190820152703a34329039b0b6b29030b2323932b9b99760791b604082015260600190565b60208082526033908201527f546865207061796d656e74206163636f756e7420616e6420726563656976696e604082015272339030b1b1b7bab73a1030b9329039b0b6b29760691b606082015260800190565b60208082526024908201527f5472616e7366657248656c7065723a205452414e534645525f46524f4d5f46416040820152631253115160e21b606082015260800190565b60208082526035908201527f54686520696e7075742061646472657373206973207468652073616d65206173604082015274103a34329031bab93932b73a1030b2323932b9b99760591b606082015260800190565b90815260200190565b60009081526020902090565b600082198211156126c1576126c1612781565b500190565b6000828210156126d8576126d8612781565b500390565b60005b838110156126f85781810151838201526020016126e0565b83811115612707576000848401525b50505050565b60028104600182168061272157607f821691505b6020821081141561058c57634e487b7160e01b600052602260045260246000fd5b600060001982141561275657612756612781565b5060010190565b600063ffffffff8083168181141561277757612777612781565b6001019392505050565b634e487b7160e01b600052601160045260246000fdfea2646970667358221220f979cda0716cbe34658d6ad074530e386f95692f7e63c6488e8c1bd752b4939d64736f6c63430008000033",
  "linkReferences": {},
  "deployedLinkReferences": {}
}